{
	"ERC/ERC20/ERC20.sol": {
		"ERC20": {
			"abi": [
				{
					"inputs": [
						{
							"internalType": "string",
							"name": "name_",
							"type": "string"
						},
						{
							"internalType": "string",
							"name": "symbol_",
							"type": "string"
						}
					],
					"stateMutability": "nonpayable",
					"type": "constructor"
				},
				{
					"anonymous": false,
					"inputs": [
						{
							"indexed": true,
							"internalType": "address",
							"name": "owner",
							"type": "address"
						},
						{
							"indexed": true,
							"internalType": "address",
							"name": "spender",
							"type": "address"
						},
						{
							"indexed": false,
							"internalType": "uint256",
							"name": "value",
							"type": "uint256"
						}
					],
					"name": "Approval",
					"type": "event"
				},
				{
					"anonymous": false,
					"inputs": [
						{
							"indexed": true,
							"internalType": "address",
							"name": "from",
							"type": "address"
						},
						{
							"indexed": true,
							"internalType": "address",
							"name": "to",
							"type": "address"
						},
						{
							"indexed": false,
							"internalType": "uint256",
							"name": "value",
							"type": "uint256"
						}
					],
					"name": "Transfer",
					"type": "event"
				},
				{
					"inputs": [
						{
							"internalType": "address",
							"name": "",
							"type": "address"
						},
						{
							"internalType": "address",
							"name": "",
							"type": "address"
						}
					],
					"name": "allowance",
					"outputs": [
						{
							"internalType": "uint256",
							"name": "",
							"type": "uint256"
						}
					],
					"stateMutability": "view",
					"type": "function"
				},
				{
					"inputs": [
						{
							"internalType": "address",
							"name": "spender",
							"type": "address"
						},
						{
							"internalType": "uint256",
							"name": "amount",
							"type": "uint256"
						}
					],
					"name": "approve",
					"outputs": [
						{
							"internalType": "bool",
							"name": "",
							"type": "bool"
						}
					],
					"stateMutability": "nonpayable",
					"type": "function"
				},
				{
					"inputs": [
						{
							"internalType": "address",
							"name": "",
							"type": "address"
						}
					],
					"name": "balanceOf",
					"outputs": [
						{
							"internalType": "uint256",
							"name": "",
							"type": "uint256"
						}
					],
					"stateMutability": "view",
					"type": "function"
				},
				{
					"inputs": [
						{
							"internalType": "uint256",
							"name": "amount",
							"type": "uint256"
						}
					],
					"name": "burn",
					"outputs": [],
					"stateMutability": "nonpayable",
					"type": "function"
				},
				{
					"inputs": [],
					"name": "decimals",
					"outputs": [
						{
							"internalType": "uint8",
							"name": "",
							"type": "uint8"
						}
					],
					"stateMutability": "view",
					"type": "function"
				},
				{
					"inputs": [
						{
							"internalType": "uint256",
							"name": "amount",
							"type": "uint256"
						}
					],
					"name": "mint",
					"outputs": [],
					"stateMutability": "nonpayable",
					"type": "function"
				},
				{
					"inputs": [],
					"name": "name",
					"outputs": [
						{
							"internalType": "string",
							"name": "",
							"type": "string"
						}
					],
					"stateMutability": "view",
					"type": "function"
				},
				{
					"inputs": [],
					"name": "symbol",
					"outputs": [
						{
							"internalType": "string",
							"name": "",
							"type": "string"
						}
					],
					"stateMutability": "view",
					"type": "function"
				},
				{
					"inputs": [],
					"name": "totalSupply",
					"outputs": [
						{
							"internalType": "uint256",
							"name": "",
							"type": "uint256"
						}
					],
					"stateMutability": "view",
					"type": "function"
				},
				{
					"inputs": [
						{
							"internalType": "address",
							"name": "recipient",
							"type": "address"
						},
						{
							"internalType": "uint256",
							"name": "amount",
							"type": "uint256"
						}
					],
					"name": "transfer",
					"outputs": [
						{
							"internalType": "bool",
							"name": "",
							"type": "bool"
						}
					],
					"stateMutability": "nonpayable",
					"type": "function"
				},
				{
					"inputs": [
						{
							"internalType": "address",
							"name": "sender",
							"type": "address"
						},
						{
							"internalType": "address",
							"name": "recipient",
							"type": "address"
						},
						{
							"internalType": "uint256",
							"name": "amount",
							"type": "uint256"
						}
					],
					"name": "transferFrom",
					"outputs": [
						{
							"internalType": "bool",
							"name": "",
							"type": "bool"
						}
					],
					"stateMutability": "nonpayable",
					"type": "function"
				}
			],
			"devdoc": {
				"kind": "dev",
				"methods": {},
				"version": 1
			},
			"evm": {
				"assembly": "    /* \"ERC/ERC20/ERC20.sol\":94:1665  contract ERC20 is IERC20 {... */\n  mstore(0x40, 0x80)\n    /* \"ERC/ERC20/ERC20.sol\":403:405  18 */\n  0x12\n    /* \"ERC/ERC20/ERC20.sol\":379:405  uint8 public decimals = 18 */\n  0x05\n  exp(0x0100, 0x00)\n  dup2\n  sload\n  dup2\n  0xff\n  mul\n  not\n  and\n  swap1\n  dup4\n  0xff\n  and\n  mul\n  or\n  swap1\n  sstore\n  pop\n    /* \"ERC/ERC20/ERC20.sol\":412:522  constructor(string memory name_,string memory symbol_) {... */\n  callvalue\n  dup1\n  iszero\n  tag_1\n  jumpi\n  0x00\n  dup1\n  revert\ntag_1:\n  pop\n  mload(0x40)\n  sub(codesize, bytecodeSize)\n  dup1\n  bytecodeSize\n  dup4\n  codecopy\n  dup2\n  dup2\n  add\n  0x40\n  mstore\n  dup2\n  add\n  swap1\n  tag_2\n  swap2\n  swap1\n  tag_3\n  jump\t// in\ntag_2:\n    /* \"ERC/ERC20/ERC20.sol\":484:489  name_ */\n  dup2\n    /* \"ERC/ERC20/ERC20.sol\":477:481  name */\n  0x03\n    /* \"ERC/ERC20/ERC20.sol\":477:489  name = name_ */\n  swap1\n  dup1\n  mload\n  swap1\n  0x20\n  add\n  swap1\n  tag_6\n  swap3\n  swap2\n  swap1\n  tag_7\n  jump\t// in\ntag_6:\n  pop\n    /* \"ERC/ERC20/ERC20.sol\":508:515  symbol_ */\n  dup1\n    /* \"ERC/ERC20/ERC20.sol\":499:505  symbol */\n  0x04\n    /* \"ERC/ERC20/ERC20.sol\":499:515  symbol = symbol_ */\n  swap1\n  dup1\n  mload\n  swap1\n  0x20\n  add\n  swap1\n  tag_8\n  swap3\n  swap2\n  swap1\n  tag_7\n  jump\t// in\ntag_8:\n  pop\n    /* \"ERC/ERC20/ERC20.sol\":412:522  constructor(string memory name_,string memory symbol_) {... */\n  pop\n  pop\n    /* \"ERC/ERC20/ERC20.sol\":94:1665  contract ERC20 is IERC20 {... */\n  jump(tag_9)\ntag_7:\n  dup3\n  dup1\n  sload\n  tag_10\n  swap1\n  tag_11\n  jump\t// in\ntag_10:\n  swap1\n  0x00\n  mstore\n  keccak256(0x00, 0x20)\n  swap1\n  0x1f\n  add\n  0x20\n  swap1\n  div\n  dup2\n  add\n  swap3\n  dup3\n  tag_13\n  jumpi\n  0x00\n  dup6\n  sstore\n  jump(tag_12)\ntag_13:\n  dup3\n  0x1f\n  lt\n  tag_14\n  jumpi\n  dup1\n  mload\n  not(0xff)\n  and\n  dup4\n  dup1\n  add\n  or\n  dup6\n  sstore\n  jump(tag_12)\ntag_14:\n  dup3\n  dup1\n  add\n  0x01\n  add\n  dup6\n  sstore\n  dup3\n  iszero\n  tag_12\n  jumpi\n  swap2\n  dup3\n  add\ntag_15:\n  dup3\n  dup2\n  gt\n  iszero\n  tag_16\n  jumpi\n  dup3\n  mload\n  dup3\n  sstore\n  swap2\n  0x20\n  add\n  swap2\n  swap1\n  0x01\n  add\n  swap1\n  jump(tag_15)\ntag_16:\ntag_12:\n  pop\n  swap1\n  pop\n  tag_17\n  swap2\n  swap1\n  tag_18\n  jump\t// in\ntag_17:\n  pop\n  swap1\n  jump\t// out\ntag_18:\ntag_19:\n  dup1\n  dup3\n  gt\n  iszero\n  tag_20\n  jumpi\n  0x00\n  dup2\n  0x00\n  swap1\n  sstore\n  pop\n  0x01\n  add\n  jump(tag_19)\ntag_20:\n  pop\n  swap1\n  jump\t// out\n    /* \"#utility.yul\":7:428   */\ntag_22:\n    /* \"#utility.yul\":96:101   */\n  0x00\n    /* \"#utility.yul\":121:187   */\n  tag_24\n    /* \"#utility.yul\":137:186   */\n  tag_25\n    /* \"#utility.yul\":179:185   */\n  dup5\n    /* \"#utility.yul\":137:186   */\n  tag_26\n  jump\t// in\ntag_25:\n    /* \"#utility.yul\":121:187   */\n  tag_27\n  jump\t// in\ntag_24:\n    /* \"#utility.yul\":112:187   */\n  swap1\n  pop\n    /* \"#utility.yul\":210:216   */\n  dup3\n    /* \"#utility.yul\":203:208   */\n  dup2\n    /* \"#utility.yul\":196:217   */\n  mstore\n    /* \"#utility.yul\":248:252   */\n  0x20\n    /* \"#utility.yul\":241:246   */\n  dup2\n    /* \"#utility.yul\":237:253   */\n  add\n    /* \"#utility.yul\":286:289   */\n  dup5\n    /* \"#utility.yul\":277:283   */\n  dup5\n    /* \"#utility.yul\":272:275   */\n  dup5\n    /* \"#utility.yul\":268:284   */\n  add\n    /* \"#utility.yul\":265:290   */\n  gt\n    /* \"#utility.yul\":262:374   */\n  iszero\n  tag_28\n  jumpi\n    /* \"#utility.yul\":293:372   */\n  tag_29\n  tag_30\n  jump\t// in\ntag_29:\n    /* \"#utility.yul\":262:374   */\ntag_28:\n    /* \"#utility.yul\":383:422   */\n  tag_31\n    /* \"#utility.yul\":415:421   */\n  dup5\n    /* \"#utility.yul\":410:413   */\n  dup3\n    /* \"#utility.yul\":405:408   */\n  dup6\n    /* \"#utility.yul\":383:422   */\n  tag_32\n  jump\t// in\ntag_31:\n    /* \"#utility.yul\":102:428   */\n  pop\n    /* \"#utility.yul\":7:428   */\n  swap4\n  swap3\n  pop\n  pop\n  pop\n  jump\t// out\n    /* \"#utility.yul\":448:803   */\ntag_33:\n    /* \"#utility.yul\":515:520   */\n  0x00\n    /* \"#utility.yul\":564:567   */\n  dup3\n    /* \"#utility.yul\":557:561   */\n  0x1f\n    /* \"#utility.yul\":549:555   */\n  dup4\n    /* \"#utility.yul\":545:562   */\n  add\n    /* \"#utility.yul\":541:568   */\n  slt\n    /* \"#utility.yul\":531:653   */\n  tag_35\n  jumpi\n    /* \"#utility.yul\":572:651   */\n  tag_36\n  tag_37\n  jump\t// in\ntag_36:\n    /* \"#utility.yul\":531:653   */\ntag_35:\n    /* \"#utility.yul\":682:688   */\n  dup2\n    /* \"#utility.yul\":676:689   */\n  mload\n    /* \"#utility.yul\":707:797   */\n  tag_38\n    /* \"#utility.yul\":793:796   */\n  dup5\n    /* \"#utility.yul\":785:791   */\n  dup3\n    /* \"#utility.yul\":778:782   */\n  0x20\n    /* \"#utility.yul\":770:776   */\n  dup7\n    /* \"#utility.yul\":766:783   */\n  add\n    /* \"#utility.yul\":707:797   */\n  tag_22\n  jump\t// in\ntag_38:\n    /* \"#utility.yul\":698:797   */\n  swap2\n  pop\n    /* \"#utility.yul\":521:803   */\n  pop\n    /* \"#utility.yul\":448:803   */\n  swap3\n  swap2\n  pop\n  pop\n  jump\t// out\n    /* \"#utility.yul\":809:1662   */\ntag_3:\n    /* \"#utility.yul\":908:914   */\n  0x00\n    /* \"#utility.yul\":916:922   */\n  dup1\n    /* \"#utility.yul\":965:967   */\n  0x40\n    /* \"#utility.yul\":953:962   */\n  dup4\n    /* \"#utility.yul\":944:951   */\n  dup6\n    /* \"#utility.yul\":940:963   */\n  sub\n    /* \"#utility.yul\":936:968   */\n  slt\n    /* \"#utility.yul\":933:1052   */\n  iszero\n  tag_40\n  jumpi\n    /* \"#utility.yul\":971:1050   */\n  tag_41\n  tag_42\n  jump\t// in\ntag_41:\n    /* \"#utility.yul\":933:1052   */\ntag_40:\n    /* \"#utility.yul\":1112:1113   */\n  0x00\n    /* \"#utility.yul\":1101:1110   */\n  dup4\n    /* \"#utility.yul\":1097:1114   */\n  add\n    /* \"#utility.yul\":1091:1115   */\n  mload\n    /* \"#utility.yul\":1142:1160   */\n  0xffffffffffffffff\n    /* \"#utility.yul\":1134:1140   */\n  dup2\n    /* \"#utility.yul\":1131:1161   */\n  gt\n    /* \"#utility.yul\":1128:1245   */\n  iszero\n  tag_43\n  jumpi\n    /* \"#utility.yul\":1164:1243   */\n  tag_44\n  tag_45\n  jump\t// in\ntag_44:\n    /* \"#utility.yul\":1128:1245   */\ntag_43:\n    /* \"#utility.yul\":1269:1343   */\n  tag_46\n    /* \"#utility.yul\":1335:1342   */\n  dup6\n    /* \"#utility.yul\":1326:1332   */\n  dup3\n    /* \"#utility.yul\":1315:1324   */\n  dup7\n    /* \"#utility.yul\":1311:1333   */\n  add\n    /* \"#utility.yul\":1269:1343   */\n  tag_33\n  jump\t// in\ntag_46:\n    /* \"#utility.yul\":1259:1343   */\n  swap3\n  pop\n    /* \"#utility.yul\":1062:1353   */\n  pop\n    /* \"#utility.yul\":1413:1415   */\n  0x20\n    /* \"#utility.yul\":1402:1411   */\n  dup4\n    /* \"#utility.yul\":1398:1416   */\n  add\n    /* \"#utility.yul\":1392:1417   */\n  mload\n    /* \"#utility.yul\":1444:1462   */\n  0xffffffffffffffff\n    /* \"#utility.yul\":1436:1442   */\n  dup2\n    /* \"#utility.yul\":1433:1463   */\n  gt\n    /* \"#utility.yul\":1430:1547   */\n  iszero\n  tag_47\n  jumpi\n    /* \"#utility.yul\":1466:1545   */\n  tag_48\n  tag_45\n  jump\t// in\ntag_48:\n    /* \"#utility.yul\":1430:1547   */\ntag_47:\n    /* \"#utility.yul\":1571:1645   */\n  tag_49\n    /* \"#utility.yul\":1637:1644   */\n  dup6\n    /* \"#utility.yul\":1628:1634   */\n  dup3\n    /* \"#utility.yul\":1617:1626   */\n  dup7\n    /* \"#utility.yul\":1613:1635   */\n  add\n    /* \"#utility.yul\":1571:1645   */\n  tag_33\n  jump\t// in\ntag_49:\n    /* \"#utility.yul\":1561:1645   */\n  swap2\n  pop\n    /* \"#utility.yul\":1363:1655   */\n  pop\n    /* \"#utility.yul\":809:1662   */\n  swap3\n  pop\n  swap3\n  swap1\n  pop\n  jump\t// out\n    /* \"#utility.yul\":1668:1797   */\ntag_27:\n    /* \"#utility.yul\":1702:1708   */\n  0x00\n    /* \"#utility.yul\":1729:1749   */\n  tag_51\n  tag_52\n  jump\t// in\ntag_51:\n    /* \"#utility.yul\":1719:1749   */\n  swap1\n  pop\n    /* \"#utility.yul\":1758:1791   */\n  tag_53\n    /* \"#utility.yul\":1786:1790   */\n  dup3\n    /* \"#utility.yul\":1778:1784   */\n  dup3\n    /* \"#utility.yul\":1758:1791   */\n  tag_54\n  jump\t// in\ntag_53:\n    /* \"#utility.yul\":1668:1797   */\n  swap2\n  swap1\n  pop\n  jump\t// out\n    /* \"#utility.yul\":1803:1878   */\ntag_52:\n    /* \"#utility.yul\":1836:1842   */\n  0x00\n    /* \"#utility.yul\":1869:1871   */\n  0x40\n    /* \"#utility.yul\":1863:1872   */\n  mload\n    /* \"#utility.yul\":1853:1872   */\n  swap1\n  pop\n    /* \"#utility.yul\":1803:1878   */\n  swap1\n  jump\t// out\n    /* \"#utility.yul\":1884:2192   */\ntag_26:\n    /* \"#utility.yul\":1946:1950   */\n  0x00\n    /* \"#utility.yul\":2036:2054   */\n  0xffffffffffffffff\n    /* \"#utility.yul\":2028:2034   */\n  dup3\n    /* \"#utility.yul\":2025:2055   */\n  gt\n    /* \"#utility.yul\":2022:2078   */\n  iszero\n  tag_57\n  jumpi\n    /* \"#utility.yul\":2058:2076   */\n  tag_58\n  tag_59\n  jump\t// in\ntag_58:\n    /* \"#utility.yul\":2022:2078   */\ntag_57:\n    /* \"#utility.yul\":2096:2125   */\n  tag_60\n    /* \"#utility.yul\":2118:2124   */\n  dup3\n    /* \"#utility.yul\":2096:2125   */\n  tag_61\n  jump\t// in\ntag_60:\n    /* \"#utility.yul\":2088:2125   */\n  swap1\n  pop\n    /* \"#utility.yul\":2180:2184   */\n  0x20\n    /* \"#utility.yul\":2174:2178   */\n  dup2\n    /* \"#utility.yul\":2170:2185   */\n  add\n    /* \"#utility.yul\":2162:2185   */\n  swap1\n  pop\n    /* \"#utility.yul\":1884:2192   */\n  swap2\n  swap1\n  pop\n  jump\t// out\n    /* \"#utility.yul\":2198:2505   */\ntag_32:\n    /* \"#utility.yul\":2266:2267   */\n  0x00\n    /* \"#utility.yul\":2276:2389   */\ntag_63:\n    /* \"#utility.yul\":2290:2296   */\n  dup4\n    /* \"#utility.yul\":2287:2288   */\n  dup2\n    /* \"#utility.yul\":2284:2297   */\n  lt\n    /* \"#utility.yul\":2276:2389   */\n  iszero\n  tag_65\n  jumpi\n    /* \"#utility.yul\":2375:2376   */\n  dup1\n    /* \"#utility.yul\":2370:2373   */\n  dup3\n    /* \"#utility.yul\":2366:2377   */\n  add\n    /* \"#utility.yul\":2360:2378   */\n  mload\n    /* \"#utility.yul\":2356:2357   */\n  dup2\n    /* \"#utility.yul\":2351:2354   */\n  dup5\n    /* \"#utility.yul\":2347:2358   */\n  add\n    /* \"#utility.yul\":2340:2379   */\n  mstore\n    /* \"#utility.yul\":2312:2314   */\n  0x20\n    /* \"#utility.yul\":2309:2310   */\n  dup2\n    /* \"#utility.yul\":2305:2315   */\n  add\n    /* \"#utility.yul\":2300:2315   */\n  swap1\n  pop\n    /* \"#utility.yul\":2276:2389   */\n  jump(tag_63)\ntag_65:\n    /* \"#utility.yul\":2407:2413   */\n  dup4\n    /* \"#utility.yul\":2404:2405   */\n  dup2\n    /* \"#utility.yul\":2401:2414   */\n  gt\n    /* \"#utility.yul\":2398:2499   */\n  iszero\n  tag_66\n  jumpi\n    /* \"#utility.yul\":2487:2488   */\n  0x00\n    /* \"#utility.yul\":2478:2484   */\n  dup5\n    /* \"#utility.yul\":2473:2476   */\n  dup5\n    /* \"#utility.yul\":2469:2485   */\n  add\n    /* \"#utility.yul\":2462:2489   */\n  mstore\n    /* \"#utility.yul\":2398:2499   */\ntag_66:\n    /* \"#utility.yul\":2247:2505   */\n  pop\n    /* \"#utility.yul\":2198:2505   */\n  pop\n  pop\n  pop\n  jump\t// out\n    /* \"#utility.yul\":2511:2831   */\ntag_11:\n    /* \"#utility.yul\":2555:2561   */\n  0x00\n    /* \"#utility.yul\":2592:2593   */\n  0x02\n    /* \"#utility.yul\":2586:2590   */\n  dup3\n    /* \"#utility.yul\":2582:2594   */\n  div\n    /* \"#utility.yul\":2572:2594   */\n  swap1\n  pop\n    /* \"#utility.yul\":2639:2640   */\n  0x01\n    /* \"#utility.yul\":2633:2637   */\n  dup3\n    /* \"#utility.yul\":2629:2641   */\n  and\n    /* \"#utility.yul\":2660:2678   */\n  dup1\n    /* \"#utility.yul\":2650:2731   */\n  tag_68\n  jumpi\n    /* \"#utility.yul\":2716:2720   */\n  0x7f\n    /* \"#utility.yul\":2708:2714   */\n  dup3\n    /* \"#utility.yul\":2704:2721   */\n  and\n    /* \"#utility.yul\":2694:2721   */\n  swap2\n  pop\n    /* \"#utility.yul\":2650:2731   */\ntag_68:\n    /* \"#utility.yul\":2778:2780   */\n  0x20\n    /* \"#utility.yul\":2770:2776   */\n  dup3\n    /* \"#utility.yul\":2767:2781   */\n  lt\n    /* \"#utility.yul\":2747:2765   */\n  dup2\n    /* \"#utility.yul\":2744:2782   */\n  eq\n    /* \"#utility.yul\":2741:2825   */\n  iszero\n  tag_69\n  jumpi\n    /* \"#utility.yul\":2797:2815   */\n  tag_70\n  tag_71\n  jump\t// in\ntag_70:\n    /* \"#utility.yul\":2741:2825   */\ntag_69:\n    /* \"#utility.yul\":2562:2831   */\n  pop\n    /* \"#utility.yul\":2511:2831   */\n  swap2\n  swap1\n  pop\n  jump\t// out\n    /* \"#utility.yul\":2837:3118   */\ntag_54:\n    /* \"#utility.yul\":2920:2947   */\n  tag_73\n    /* \"#utility.yul\":2942:2946   */\n  dup3\n    /* \"#utility.yul\":2920:2947   */\n  tag_61\n  jump\t// in\ntag_73:\n    /* \"#utility.yul\":2912:2918   */\n  dup2\n    /* \"#utility.yul\":2908:2948   */\n  add\n    /* \"#utility.yul\":3050:3056   */\n  dup2\n    /* \"#utility.yul\":3038:3048   */\n  dup2\n    /* \"#utility.yul\":3035:3057   */\n  lt\n    /* \"#utility.yul\":3014:3032   */\n  0xffffffffffffffff\n    /* \"#utility.yul\":3002:3012   */\n  dup3\n    /* \"#utility.yul\":2999:3033   */\n  gt\n    /* \"#utility.yul\":2996:3058   */\n  or\n    /* \"#utility.yul\":2993:3081   */\n  iszero\n  tag_74\n  jumpi\n    /* \"#utility.yul\":3061:3079   */\n  tag_75\n  tag_59\n  jump\t// in\ntag_75:\n    /* \"#utility.yul\":2993:3081   */\ntag_74:\n    /* \"#utility.yul\":3101:3111   */\n  dup1\n    /* \"#utility.yul\":3097:3099   */\n  0x40\n    /* \"#utility.yul\":3090:3112   */\n  mstore\n    /* \"#utility.yul\":2880:3118   */\n  pop\n    /* \"#utility.yul\":2837:3118   */\n  pop\n  pop\n  jump\t// out\n    /* \"#utility.yul\":3124:3304   */\ntag_71:\n    /* \"#utility.yul\":3172:3249   */\n  0x4e487b7100000000000000000000000000000000000000000000000000000000\n    /* \"#utility.yul\":3169:3170   */\n  0x00\n    /* \"#utility.yul\":3162:3250   */\n  mstore\n    /* \"#utility.yul\":3269:3273   */\n  0x22\n    /* \"#utility.yul\":3266:3267   */\n  0x04\n    /* \"#utility.yul\":3259:3274   */\n  mstore\n    /* \"#utility.yul\":3293:3297   */\n  0x24\n    /* \"#utility.yul\":3290:3291   */\n  0x00\n    /* \"#utility.yul\":3283:3298   */\n  revert\n    /* \"#utility.yul\":3310:3490   */\ntag_59:\n    /* \"#utility.yul\":3358:3435   */\n  0x4e487b7100000000000000000000000000000000000000000000000000000000\n    /* \"#utility.yul\":3355:3356   */\n  0x00\n    /* \"#utility.yul\":3348:3436   */\n  mstore\n    /* \"#utility.yul\":3455:3459   */\n  0x41\n    /* \"#utility.yul\":3452:3453   */\n  0x04\n    /* \"#utility.yul\":3445:3460   */\n  mstore\n    /* \"#utility.yul\":3479:3483   */\n  0x24\n    /* \"#utility.yul\":3476:3477   */\n  0x00\n    /* \"#utility.yul\":3469:3484   */\n  revert\n    /* \"#utility.yul\":3496:3613   */\ntag_37:\n    /* \"#utility.yul\":3605:3606   */\n  0x00\n    /* \"#utility.yul\":3602:3603   */\n  dup1\n    /* \"#utility.yul\":3595:3607   */\n  revert\n    /* \"#utility.yul\":3619:3736   */\ntag_30:\n    /* \"#utility.yul\":3728:3729   */\n  0x00\n    /* \"#utility.yul\":3725:3726   */\n  dup1\n    /* \"#utility.yul\":3718:3730   */\n  revert\n    /* \"#utility.yul\":3742:3859   */\ntag_45:\n    /* \"#utility.yul\":3851:3852   */\n  0x00\n    /* \"#utility.yul\":3848:3849   */\n  dup1\n    /* \"#utility.yul\":3841:3853   */\n  revert\n    /* \"#utility.yul\":3865:3982   */\ntag_42:\n    /* \"#utility.yul\":3974:3975   */\n  0x00\n    /* \"#utility.yul\":3971:3972   */\n  dup1\n    /* \"#utility.yul\":3964:3976   */\n  revert\n    /* \"#utility.yul\":3988:4090   */\ntag_61:\n    /* \"#utility.yul\":4029:4035   */\n  0x00\n    /* \"#utility.yul\":4080:4082   */\n  0x1f\n    /* \"#utility.yul\":4076:4083   */\n  not\n    /* \"#utility.yul\":4071:4073   */\n  0x1f\n    /* \"#utility.yul\":4064:4069   */\n  dup4\n    /* \"#utility.yul\":4060:4074   */\n  add\n    /* \"#utility.yul\":4056:4084   */\n  and\n    /* \"#utility.yul\":4046:4084   */\n  swap1\n  pop\n    /* \"#utility.yul\":3988:4090   */\n  swap2\n  swap1\n  pop\n  jump\t// out\n    /* \"ERC/ERC20/ERC20.sol\":94:1665  contract ERC20 is IERC20 {... */\ntag_9:\n  dataSize(sub_0)\n  dup1\n  dataOffset(sub_0)\n  0x00\n  codecopy\n  0x00\n  return\nstop\n\nsub_0: assembly {\n        /* \"ERC/ERC20/ERC20.sol\":94:1665  contract ERC20 is IERC20 {... */\n      mstore(0x40, 0x80)\n      callvalue\n      dup1\n      iszero\n      tag_1\n      jumpi\n      0x00\n      dup1\n      revert\n    tag_1:\n      pop\n      jumpi(tag_2, lt(calldatasize, 0x04))\n      shr(0xe0, calldataload(0x00))\n      dup1\n      0x42966c68\n      gt\n      tag_14\n      jumpi\n      dup1\n      0x42966c68\n      eq\n      tag_8\n      jumpi\n      dup1\n      0x70a08231\n      eq\n      tag_9\n      jumpi\n      dup1\n      0x95d89b41\n      eq\n      tag_10\n      jumpi\n      dup1\n      0xa0712d68\n      eq\n      tag_11\n      jumpi\n      dup1\n      0xa9059cbb\n      eq\n      tag_12\n      jumpi\n      dup1\n      0xdd62ed3e\n      eq\n      tag_13\n      jumpi\n      jump(tag_2)\n    tag_14:\n      dup1\n      0x06fdde03\n      eq\n      tag_3\n      jumpi\n      dup1\n      0x095ea7b3\n      eq\n      tag_4\n      jumpi\n      dup1\n      0x18160ddd\n      eq\n      tag_5\n      jumpi\n      dup1\n      0x23b872dd\n      eq\n      tag_6\n      jumpi\n      dup1\n      0x313ce567\n      eq\n      tag_7\n      jumpi\n    tag_2:\n      0x00\n      dup1\n      revert\n        /* \"ERC/ERC20/ERC20.sol\":327:345  string public name */\n    tag_3:\n      tag_15\n      tag_16\n      jump\t// in\n    tag_15:\n      mload(0x40)\n      tag_17\n      swap2\n      swap1\n      tag_18\n      jump\t// in\n    tag_17:\n      mload(0x40)\n      dup1\n      swap2\n      sub\n      swap1\n      return\n        /* \"ERC/ERC20/ERC20.sol\":777:983  function approve(address spender,uint amount) external override returns (bool) {... */\n    tag_4:\n      tag_19\n      0x04\n      dup1\n      calldatasize\n      sub\n      dup2\n      add\n      swap1\n      tag_20\n      swap2\n      swap1\n      tag_21\n      jump\t// in\n    tag_20:\n      tag_22\n      jump\t// in\n    tag_19:\n      mload(0x40)\n      tag_23\n      swap2\n      swap1\n      tag_24\n      jump\t// in\n    tag_23:\n      mload(0x40)\n      dup1\n      swap2\n      sub\n      swap1\n      return\n        /* \"ERC/ERC20/ERC20.sol\":266:301  uint256 public override totalSupply */\n    tag_5:\n      tag_25\n      tag_26\n      jump\t// in\n    tag_25:\n      mload(0x40)\n      tag_27\n      swap2\n      swap1\n      tag_28\n      jump\t// in\n    tag_27:\n      mload(0x40)\n      dup1\n      swap2\n      sub\n      swap1\n      return\n        /* \"ERC/ERC20/ERC20.sol\":989:1293  function transferFrom (address sender,address recipient,uint amount) external override returns (bool) {... */\n    tag_6:\n      tag_29\n      0x04\n      dup1\n      calldatasize\n      sub\n      dup2\n      add\n      swap1\n      tag_30\n      swap2\n      swap1\n      tag_31\n      jump\t// in\n    tag_30:\n      tag_32\n      jump\t// in\n    tag_29:\n      mload(0x40)\n      tag_33\n      swap2\n      swap1\n      tag_24\n      jump\t// in\n    tag_33:\n      mload(0x40)\n      dup1\n      swap2\n      sub\n      swap1\n      return\n        /* \"ERC/ERC20/ERC20.sol\":379:405  uint8 public decimals = 18 */\n    tag_7:\n      tag_34\n      tag_35\n      jump\t// in\n    tag_34:\n      mload(0x40)\n      tag_36\n      swap2\n      swap1\n      tag_37\n      jump\t// in\n    tag_36:\n      mload(0x40)\n      dup1\n      swap2\n      sub\n      swap1\n      return\n        /* \"ERC/ERC20/ERC20.sol\":1473:1641  function burn(uint amount) external {... */\n    tag_8:\n      tag_38\n      0x04\n      dup1\n      calldatasize\n      sub\n      dup2\n      add\n      swap1\n      tag_39\n      swap2\n      swap1\n      tag_40\n      jump\t// in\n    tag_39:\n      tag_41\n      jump\t// in\n    tag_38:\n      stop\n        /* \"ERC/ERC20/ERC20.sol\":126:179  mapping(address => uint256) public override balanceOf */\n    tag_9:\n      tag_42\n      0x04\n      dup1\n      calldatasize\n      sub\n      dup2\n      add\n      swap1\n      tag_43\n      swap2\n      swap1\n      tag_44\n      jump\t// in\n    tag_43:\n      tag_45\n      jump\t// in\n    tag_42:\n      mload(0x40)\n      tag_46\n      swap2\n      swap1\n      tag_28\n      jump\t// in\n    tag_46:\n      mload(0x40)\n      dup1\n      swap2\n      sub\n      swap1\n      return\n        /* \"ERC/ERC20/ERC20.sol\":352:372  string public symbol */\n    tag_10:\n      tag_47\n      tag_48\n      jump\t// in\n    tag_47:\n      mload(0x40)\n      tag_49\n      swap2\n      swap1\n      tag_18\n      jump\t// in\n    tag_49:\n      mload(0x40)\n      dup1\n      swap2\n      sub\n      swap1\n      return\n        /* \"ERC/ERC20/ERC20.sol\":1299:1467  function mint(uint amount) external {... */\n    tag_11:\n      tag_50\n      0x04\n      dup1\n      calldatasize\n      sub\n      dup2\n      add\n      swap1\n      tag_51\n      swap2\n      swap1\n      tag_40\n      jump\t// in\n    tag_51:\n      tag_52\n      jump\t// in\n    tag_50:\n      stop\n        /* \"ERC/ERC20/ERC20.sol\":528:771  function transfer(address recipient,uint amount) external override returns (bool) {... */\n    tag_12:\n      tag_53\n      0x04\n      dup1\n      calldatasize\n      sub\n      dup2\n      add\n      swap1\n      tag_54\n      swap2\n      swap1\n      tag_21\n      jump\t// in\n    tag_54:\n      tag_55\n      jump\t// in\n    tag_53:\n      mload(0x40)\n      tag_56\n      swap2\n      swap1\n      tag_24\n      jump\t// in\n    tag_56:\n      mload(0x40)\n      dup1\n      swap2\n      sub\n      swap1\n      return\n        /* \"ERC/ERC20/ERC20.sol\":186:259  mapping(address => mapping(address => uint256)) public override allowance */\n    tag_13:\n      tag_57\n      0x04\n      dup1\n      calldatasize\n      sub\n      dup2\n      add\n      swap1\n      tag_58\n      swap2\n      swap1\n      tag_59\n      jump\t// in\n    tag_58:\n      tag_60\n      jump\t// in\n    tag_57:\n      mload(0x40)\n      tag_61\n      swap2\n      swap1\n      tag_28\n      jump\t// in\n    tag_61:\n      mload(0x40)\n      dup1\n      swap2\n      sub\n      swap1\n      return\n        /* \"ERC/ERC20/ERC20.sol\":327:345  string public name */\n    tag_16:\n      0x03\n      dup1\n      sload\n      tag_62\n      swap1\n      tag_63\n      jump\t// in\n    tag_62:\n      dup1\n      0x1f\n      add\n      0x20\n      dup1\n      swap2\n      div\n      mul\n      0x20\n      add\n      mload(0x40)\n      swap1\n      dup2\n      add\n      0x40\n      mstore\n      dup1\n      swap3\n      swap2\n      swap1\n      dup2\n      dup2\n      mstore\n      0x20\n      add\n      dup3\n      dup1\n      sload\n      tag_64\n      swap1\n      tag_63\n      jump\t// in\n    tag_64:\n      dup1\n      iszero\n      tag_65\n      jumpi\n      dup1\n      0x1f\n      lt\n      tag_66\n      jumpi\n      0x0100\n      dup1\n      dup4\n      sload\n      div\n      mul\n      dup4\n      mstore\n      swap2\n      0x20\n      add\n      swap2\n      jump(tag_65)\n    tag_66:\n      dup3\n      add\n      swap2\n      swap1\n      0x00\n      mstore\n      keccak256(0x00, 0x20)\n      swap1\n    tag_67:\n      dup2\n      sload\n      dup2\n      mstore\n      swap1\n      0x01\n      add\n      swap1\n      0x20\n      add\n      dup1\n      dup4\n      gt\n      tag_67\n      jumpi\n      dup3\n      swap1\n      sub\n      0x1f\n      and\n      dup3\n      add\n      swap2\n    tag_65:\n      pop\n      pop\n      pop\n      pop\n      pop\n      dup2\n      jump\t// out\n        /* \"ERC/ERC20/ERC20.sol\":777:983  function approve(address spender,uint amount) external override returns (bool) {... */\n    tag_22:\n        /* \"ERC/ERC20/ERC20.sol\":850:854  bool */\n      0x00\n        /* \"ERC/ERC20/ERC20.sol\":899:905  amount */\n      dup2\n        /* \"ERC/ERC20/ERC20.sol\":866:875  allowance */\n      0x01\n        /* \"ERC/ERC20/ERC20.sol\":866:887  allowance[msg.sender] */\n      0x00\n        /* \"ERC/ERC20/ERC20.sol\":876:886  msg.sender */\n      caller\n        /* \"ERC/ERC20/ERC20.sol\":866:887  allowance[msg.sender] */\n      0xffffffffffffffffffffffffffffffffffffffff\n      and\n      0xffffffffffffffffffffffffffffffffffffffff\n      and\n      dup2\n      mstore\n      0x20\n      add\n      swap1\n      dup2\n      mstore\n      0x20\n      add\n      0x00\n      keccak256\n        /* \"ERC/ERC20/ERC20.sol\":866:896  allowance[msg.sender][spender] */\n      0x00\n        /* \"ERC/ERC20/ERC20.sol\":888:895  spender */\n      dup6\n        /* \"ERC/ERC20/ERC20.sol\":866:896  allowance[msg.sender][spender] */\n      0xffffffffffffffffffffffffffffffffffffffff\n      and\n      0xffffffffffffffffffffffffffffffffffffffff\n      and\n      dup2\n      mstore\n      0x20\n      add\n      swap1\n      dup2\n      mstore\n      0x20\n      add\n      0x00\n      keccak256\n        /* \"ERC/ERC20/ERC20.sol\":866:905  allowance[msg.sender][spender] = amount */\n      dup2\n      swap1\n      sstore\n      pop\n        /* \"ERC/ERC20/ERC20.sol\":940:947  spender */\n      dup3\n        /* \"ERC/ERC20/ERC20.sol\":920:955  Approval(msg.sender,spender,amount) */\n      0xffffffffffffffffffffffffffffffffffffffff\n      and\n        /* \"ERC/ERC20/ERC20.sol\":929:939  msg.sender */\n      caller\n        /* \"ERC/ERC20/ERC20.sol\":920:955  Approval(msg.sender,spender,amount) */\n      0xffffffffffffffffffffffffffffffffffffffff\n      and\n      0x8c5be1e5ebec7d5bd14f71427d1e84f3dd0314c0f7b2291e5b200ac8c7c3b925\n        /* \"ERC/ERC20/ERC20.sol\":948:954  amount */\n      dup5\n        /* \"ERC/ERC20/ERC20.sol\":920:955  Approval(msg.sender,spender,amount) */\n      mload(0x40)\n      tag_69\n      swap2\n      swap1\n      tag_28\n      jump\t// in\n    tag_69:\n      mload(0x40)\n      dup1\n      swap2\n      sub\n      swap1\n      log3\n        /* \"ERC/ERC20/ERC20.sol\":972:976  true */\n      0x01\n        /* \"ERC/ERC20/ERC20.sol\":965:976  return true */\n      swap1\n      pop\n        /* \"ERC/ERC20/ERC20.sol\":777:983  function approve(address spender,uint amount) external override returns (bool) {... */\n      swap3\n      swap2\n      pop\n      pop\n      jump\t// out\n        /* \"ERC/ERC20/ERC20.sol\":266:301  uint256 public override totalSupply */\n    tag_26:\n      sload(0x02)\n      dup2\n      jump\t// out\n        /* \"ERC/ERC20/ERC20.sol\":989:1293  function transferFrom (address sender,address recipient,uint amount) external override returns (bool) {... */\n    tag_32:\n        /* \"ERC/ERC20/ERC20.sol\":1085:1089  bool */\n      0x00\n        /* \"ERC/ERC20/ERC20.sol\":1134:1140  amount */\n      dup2\n        /* \"ERC/ERC20/ERC20.sol\":1101:1110  allowance */\n      0x01\n        /* \"ERC/ERC20/ERC20.sol\":1101:1118  allowance[sender] */\n      0x00\n        /* \"ERC/ERC20/ERC20.sol\":1111:1117  sender */\n      dup7\n        /* \"ERC/ERC20/ERC20.sol\":1101:1118  allowance[sender] */\n      0xffffffffffffffffffffffffffffffffffffffff\n      and\n      0xffffffffffffffffffffffffffffffffffffffff\n      and\n      dup2\n      mstore\n      0x20\n      add\n      swap1\n      dup2\n      mstore\n      0x20\n      add\n      0x00\n      keccak256\n        /* \"ERC/ERC20/ERC20.sol\":1101:1130  allowance[sender][msg.sender] */\n      0x00\n        /* \"ERC/ERC20/ERC20.sol\":1119:1129  msg.sender */\n      caller\n        /* \"ERC/ERC20/ERC20.sol\":1101:1130  allowance[sender][msg.sender] */\n      0xffffffffffffffffffffffffffffffffffffffff\n      and\n      0xffffffffffffffffffffffffffffffffffffffff\n      and\n      dup2\n      mstore\n      0x20\n      add\n      swap1\n      dup2\n      mstore\n      0x20\n      add\n      0x00\n      keccak256\n      0x00\n        /* \"ERC/ERC20/ERC20.sol\":1101:1140  allowance[sender][msg.sender] -= amount */\n      dup3\n      dup3\n      sload\n      tag_71\n      swap2\n      swap1\n      tag_72\n      jump\t// in\n    tag_71:\n      swap3\n      pop\n      pop\n      dup2\n      swap1\n      sstore\n      pop\n        /* \"ERC/ERC20/ERC20.sol\":1171:1177  amount */\n      dup2\n        /* \"ERC/ERC20/ERC20.sol\":1150:1159  balanceOf */\n      0x00\n        /* \"ERC/ERC20/ERC20.sol\":1150:1167  balanceOf[sender] */\n      dup1\n        /* \"ERC/ERC20/ERC20.sol\":1160:1166  sender */\n      dup7\n        /* \"ERC/ERC20/ERC20.sol\":1150:1167  balanceOf[sender] */\n      0xffffffffffffffffffffffffffffffffffffffff\n      and\n      0xffffffffffffffffffffffffffffffffffffffff\n      and\n      dup2\n      mstore\n      0x20\n      add\n      swap1\n      dup2\n      mstore\n      0x20\n      add\n      0x00\n      keccak256\n      0x00\n        /* \"ERC/ERC20/ERC20.sol\":1150:1177  balanceOf[sender] -= amount */\n      dup3\n      dup3\n      sload\n      tag_73\n      swap2\n      swap1\n      tag_72\n      jump\t// in\n    tag_73:\n      swap3\n      pop\n      pop\n      dup2\n      swap1\n      sstore\n      pop\n        /* \"ERC/ERC20/ERC20.sol\":1211:1217  amount */\n      dup2\n        /* \"ERC/ERC20/ERC20.sol\":1187:1196  balanceOf */\n      0x00\n        /* \"ERC/ERC20/ERC20.sol\":1187:1207  balanceOf[recipient] */\n      dup1\n        /* \"ERC/ERC20/ERC20.sol\":1197:1206  recipient */\n      dup6\n        /* \"ERC/ERC20/ERC20.sol\":1187:1207  balanceOf[recipient] */\n      0xffffffffffffffffffffffffffffffffffffffff\n      and\n      0xffffffffffffffffffffffffffffffffffffffff\n      and\n      dup2\n      mstore\n      0x20\n      add\n      swap1\n      dup2\n      mstore\n      0x20\n      add\n      0x00\n      keccak256\n      0x00\n        /* \"ERC/ERC20/ERC20.sol\":1187:1217  balanceOf[recipient] += amount */\n      dup3\n      dup3\n      sload\n      tag_74\n      swap2\n      swap1\n      tag_75\n      jump\t// in\n    tag_74:\n      swap3\n      pop\n      pop\n      dup2\n      swap1\n      sstore\n      pop\n        /* \"ERC/ERC20/ERC20.sol\":1248:1257  recipient */\n      dup3\n        /* \"ERC/ERC20/ERC20.sol\":1232:1265  Transfer(sender,recipient,amount) */\n      0xffffffffffffffffffffffffffffffffffffffff\n      and\n        /* \"ERC/ERC20/ERC20.sol\":1241:1247  sender */\n      dup5\n        /* \"ERC/ERC20/ERC20.sol\":1232:1265  Transfer(sender,recipient,amount) */\n      0xffffffffffffffffffffffffffffffffffffffff\n      and\n      0xddf252ad1be2c89b69c2b068fc378daa952ba7f163c4a11628f55a4df523b3ef\n        /* \"ERC/ERC20/ERC20.sol\":1258:1264  amount */\n      dup5\n        /* \"ERC/ERC20/ERC20.sol\":1232:1265  Transfer(sender,recipient,amount) */\n      mload(0x40)\n      tag_76\n      swap2\n      swap1\n      tag_28\n      jump\t// in\n    tag_76:\n      mload(0x40)\n      dup1\n      swap2\n      sub\n      swap1\n      log3\n        /* \"ERC/ERC20/ERC20.sol\":1282:1286  true */\n      0x01\n        /* \"ERC/ERC20/ERC20.sol\":1275:1286  return true */\n      swap1\n      pop\n        /* \"ERC/ERC20/ERC20.sol\":989:1293  function transferFrom (address sender,address recipient,uint amount) external override returns (bool) {... */\n      swap4\n      swap3\n      pop\n      pop\n      pop\n      jump\t// out\n        /* \"ERC/ERC20/ERC20.sol\":379:405  uint8 public decimals = 18 */\n    tag_35:\n      0x05\n      0x00\n      swap1\n      sload\n      swap1\n      0x0100\n      exp\n      swap1\n      div\n      0xff\n      and\n      dup2\n      jump\t// out\n        /* \"ERC/ERC20/ERC20.sol\":1473:1641  function burn(uint amount) external {... */\n    tag_41:\n        /* \"ERC/ERC20/ERC20.sol\":1544:1550  amount */\n      dup1\n        /* \"ERC/ERC20/ERC20.sol\":1519:1528  balanceOf */\n      0x00\n        /* \"ERC/ERC20/ERC20.sol\":1519:1540  balanceOf[msg.sender] */\n      dup1\n        /* \"ERC/ERC20/ERC20.sol\":1529:1539  msg.sender */\n      caller\n        /* \"ERC/ERC20/ERC20.sol\":1519:1540  balanceOf[msg.sender] */\n      0xffffffffffffffffffffffffffffffffffffffff\n      and\n      0xffffffffffffffffffffffffffffffffffffffff\n      and\n      dup2\n      mstore\n      0x20\n      add\n      swap1\n      dup2\n      mstore\n      0x20\n      add\n      0x00\n      keccak256\n      0x00\n        /* \"ERC/ERC20/ERC20.sol\":1519:1550  balanceOf[msg.sender] -= amount */\n      dup3\n      dup3\n      sload\n      tag_78\n      swap2\n      swap1\n      tag_72\n      jump\t// in\n    tag_78:\n      swap3\n      pop\n      pop\n      dup2\n      swap1\n      sstore\n      pop\n        /* \"ERC/ERC20/ERC20.sol\":1575:1581  amount */\n      dup1\n        /* \"ERC/ERC20/ERC20.sol\":1560:1571  totalSupply */\n      0x02\n      0x00\n        /* \"ERC/ERC20/ERC20.sol\":1560:1581  totalSupply -= amount */\n      dup3\n      dup3\n      sload\n      tag_79\n      swap2\n      swap1\n      tag_72\n      jump\t// in\n    tag_79:\n      swap3\n      pop\n      pop\n      dup2\n      swap1\n      sstore\n      pop\n        /* \"ERC/ERC20/ERC20.sol\":1624:1625  0 */\n      0x00\n        /* \"ERC/ERC20/ERC20.sol\":1596:1634  Transfer(msg.sender,address(0),amount) */\n      0xffffffffffffffffffffffffffffffffffffffff\n      and\n        /* \"ERC/ERC20/ERC20.sol\":1605:1615  msg.sender */\n      caller\n        /* \"ERC/ERC20/ERC20.sol\":1596:1634  Transfer(msg.sender,address(0),amount) */\n      0xffffffffffffffffffffffffffffffffffffffff\n      and\n      0xddf252ad1be2c89b69c2b068fc378daa952ba7f163c4a11628f55a4df523b3ef\n        /* \"ERC/ERC20/ERC20.sol\":1627:1633  amount */\n      dup4\n        /* \"ERC/ERC20/ERC20.sol\":1596:1634  Transfer(msg.sender,address(0),amount) */\n      mload(0x40)\n      tag_80\n      swap2\n      swap1\n      tag_28\n      jump\t// in\n    tag_80:\n      mload(0x40)\n      dup1\n      swap2\n      sub\n      swap1\n      log3\n        /* \"ERC/ERC20/ERC20.sol\":1473:1641  function burn(uint amount) external {... */\n      pop\n      jump\t// out\n        /* \"ERC/ERC20/ERC20.sol\":126:179  mapping(address => uint256) public override balanceOf */\n    tag_45:\n      mstore(0x20, 0x00)\n      dup1\n      0x00\n      mstore\n      keccak256(0x00, 0x40)\n      0x00\n      swap2\n      pop\n      swap1\n      pop\n      sload\n      dup2\n      jump\t// out\n        /* \"ERC/ERC20/ERC20.sol\":352:372  string public symbol */\n    tag_48:\n      0x04\n      dup1\n      sload\n      tag_81\n      swap1\n      tag_63\n      jump\t// in\n    tag_81:\n      dup1\n      0x1f\n      add\n      0x20\n      dup1\n      swap2\n      div\n      mul\n      0x20\n      add\n      mload(0x40)\n      swap1\n      dup2\n      add\n      0x40\n      mstore\n      dup1\n      swap3\n      swap2\n      swap1\n      dup2\n      dup2\n      mstore\n      0x20\n      add\n      dup3\n      dup1\n      sload\n      tag_82\n      swap1\n      tag_63\n      jump\t// in\n    tag_82:\n      dup1\n      iszero\n      tag_83\n      jumpi\n      dup1\n      0x1f\n      lt\n      tag_84\n      jumpi\n      0x0100\n      dup1\n      dup4\n      sload\n      div\n      mul\n      dup4\n      mstore\n      swap2\n      0x20\n      add\n      swap2\n      jump(tag_83)\n    tag_84:\n      dup3\n      add\n      swap2\n      swap1\n      0x00\n      mstore\n      keccak256(0x00, 0x20)\n      swap1\n    tag_85:\n      dup2\n      sload\n      dup2\n      mstore\n      swap1\n      0x01\n      add\n      swap1\n      0x20\n      add\n      dup1\n      dup4\n      gt\n      tag_85\n      jumpi\n      dup3\n      swap1\n      sub\n      0x1f\n      and\n      dup3\n      add\n      swap2\n    tag_83:\n      pop\n      pop\n      pop\n      pop\n      pop\n      dup2\n      jump\t// out\n        /* \"ERC/ERC20/ERC20.sol\":1299:1467  function mint(uint amount) external {... */\n    tag_52:\n        /* \"ERC/ERC20/ERC20.sol\":1370:1376  amount */\n      dup1\n        /* \"ERC/ERC20/ERC20.sol\":1345:1354  balanceOf */\n      0x00\n        /* \"ERC/ERC20/ERC20.sol\":1345:1366  balanceOf[msg.sender] */\n      dup1\n        /* \"ERC/ERC20/ERC20.sol\":1355:1365  msg.sender */\n      caller\n        /* \"ERC/ERC20/ERC20.sol\":1345:1366  balanceOf[msg.sender] */\n      0xffffffffffffffffffffffffffffffffffffffff\n      and\n      0xffffffffffffffffffffffffffffffffffffffff\n      and\n      dup2\n      mstore\n      0x20\n      add\n      swap1\n      dup2\n      mstore\n      0x20\n      add\n      0x00\n      keccak256\n      0x00\n        /* \"ERC/ERC20/ERC20.sol\":1345:1376  balanceOf[msg.sender] += amount */\n      dup3\n      dup3\n      sload\n      tag_87\n      swap2\n      swap1\n      tag_75\n      jump\t// in\n    tag_87:\n      swap3\n      pop\n      pop\n      dup2\n      swap1\n      sstore\n      pop\n        /* \"ERC/ERC20/ERC20.sol\":1401:1407  amount */\n      dup1\n        /* \"ERC/ERC20/ERC20.sol\":1386:1397  totalSupply */\n      0x02\n      0x00\n        /* \"ERC/ERC20/ERC20.sol\":1386:1407  totalSupply += amount */\n      dup3\n      dup3\n      sload\n      tag_88\n      swap2\n      swap1\n      tag_75\n      jump\t// in\n    tag_88:\n      swap3\n      pop\n      pop\n      dup2\n      swap1\n      sstore\n      pop\n        /* \"ERC/ERC20/ERC20.sol\":1442:1452  msg.sender */\n      caller\n        /* \"ERC/ERC20/ERC20.sol\":1422:1460  Transfer(address(0),msg.sender,amount) */\n      0xffffffffffffffffffffffffffffffffffffffff\n      and\n        /* \"ERC/ERC20/ERC20.sol\":1439:1440  0 */\n      0x00\n        /* \"ERC/ERC20/ERC20.sol\":1422:1460  Transfer(address(0),msg.sender,amount) */\n      0xffffffffffffffffffffffffffffffffffffffff\n      and\n      0xddf252ad1be2c89b69c2b068fc378daa952ba7f163c4a11628f55a4df523b3ef\n        /* \"ERC/ERC20/ERC20.sol\":1453:1459  amount */\n      dup4\n        /* \"ERC/ERC20/ERC20.sol\":1422:1460  Transfer(address(0),msg.sender,amount) */\n      mload(0x40)\n      tag_89\n      swap2\n      swap1\n      tag_28\n      jump\t// in\n    tag_89:\n      mload(0x40)\n      dup1\n      swap2\n      sub\n      swap1\n      log3\n        /* \"ERC/ERC20/ERC20.sol\":1299:1467  function mint(uint amount) external {... */\n      pop\n      jump\t// out\n        /* \"ERC/ERC20/ERC20.sol\":528:771  function transfer(address recipient,uint amount) external override returns (bool) {... */\n    tag_55:\n        /* \"ERC/ERC20/ERC20.sol\":604:608  bool */\n      0x00\n        /* \"ERC/ERC20/ERC20.sol\":645:651  amount */\n      dup2\n        /* \"ERC/ERC20/ERC20.sol\":620:629  balanceOf */\n      0x00\n        /* \"ERC/ERC20/ERC20.sol\":620:641  balanceOf[msg.sender] */\n      dup1\n        /* \"ERC/ERC20/ERC20.sol\":630:640  msg.sender */\n      caller\n        /* \"ERC/ERC20/ERC20.sol\":620:641  balanceOf[msg.sender] */\n      0xffffffffffffffffffffffffffffffffffffffff\n      and\n      0xffffffffffffffffffffffffffffffffffffffff\n      and\n      dup2\n      mstore\n      0x20\n      add\n      swap1\n      dup2\n      mstore\n      0x20\n      add\n      0x00\n      keccak256\n      0x00\n        /* \"ERC/ERC20/ERC20.sol\":620:651  balanceOf[msg.sender] -= amount */\n      dup3\n      dup3\n      sload\n      tag_91\n      swap2\n      swap1\n      tag_72\n      jump\t// in\n    tag_91:\n      swap3\n      pop\n      pop\n      dup2\n      swap1\n      sstore\n      pop\n        /* \"ERC/ERC20/ERC20.sol\":685:691  amount */\n      dup2\n        /* \"ERC/ERC20/ERC20.sol\":661:670  balanceOf */\n      0x00\n        /* \"ERC/ERC20/ERC20.sol\":661:681  balanceOf[recipient] */\n      dup1\n        /* \"ERC/ERC20/ERC20.sol\":671:680  recipient */\n      dup6\n        /* \"ERC/ERC20/ERC20.sol\":661:681  balanceOf[recipient] */\n      0xffffffffffffffffffffffffffffffffffffffff\n      and\n      0xffffffffffffffffffffffffffffffffffffffff\n      and\n      dup2\n      mstore\n      0x20\n      add\n      swap1\n      dup2\n      mstore\n      0x20\n      add\n      0x00\n      keccak256\n      0x00\n        /* \"ERC/ERC20/ERC20.sol\":661:691  balanceOf[recipient] -= amount */\n      dup3\n      dup3\n      sload\n      tag_92\n      swap2\n      swap1\n      tag_72\n      jump\t// in\n    tag_92:\n      swap3\n      pop\n      pop\n      dup2\n      swap1\n      sstore\n      pop\n        /* \"ERC/ERC20/ERC20.sol\":726:735  recipient */\n      dup3\n        /* \"ERC/ERC20/ERC20.sol\":706:743  Transfer(msg.sender,recipient,amount) */\n      0xffffffffffffffffffffffffffffffffffffffff\n      and\n        /* \"ERC/ERC20/ERC20.sol\":715:725  msg.sender */\n      caller\n        /* \"ERC/ERC20/ERC20.sol\":706:743  Transfer(msg.sender,recipient,amount) */\n      0xffffffffffffffffffffffffffffffffffffffff\n      and\n      0xddf252ad1be2c89b69c2b068fc378daa952ba7f163c4a11628f55a4df523b3ef\n        /* \"ERC/ERC20/ERC20.sol\":736:742  amount */\n      dup5\n        /* \"ERC/ERC20/ERC20.sol\":706:743  Transfer(msg.sender,recipient,amount) */\n      mload(0x40)\n      tag_93\n      swap2\n      swap1\n      tag_28\n      jump\t// in\n    tag_93:\n      mload(0x40)\n      dup1\n      swap2\n      sub\n      swap1\n      log3\n        /* \"ERC/ERC20/ERC20.sol\":760:764  true */\n      0x01\n        /* \"ERC/ERC20/ERC20.sol\":753:764  return true */\n      swap1\n      pop\n        /* \"ERC/ERC20/ERC20.sol\":528:771  function transfer(address recipient,uint amount) external override returns (bool) {... */\n      swap3\n      swap2\n      pop\n      pop\n      jump\t// out\n        /* \"ERC/ERC20/ERC20.sol\":186:259  mapping(address => mapping(address => uint256)) public override allowance */\n    tag_60:\n      mstore(0x20, 0x01)\n      dup2\n      0x00\n      mstore\n      mstore(0x20, keccak256(0x00, 0x40))\n      dup1\n      0x00\n      mstore\n      keccak256(0x00, 0x40)\n      0x00\n      swap2\n      pop\n      swap2\n      pop\n      pop\n      sload\n      dup2\n      jump\t// out\n        /* \"#utility.yul\":7:146   */\n    tag_95:\n        /* \"#utility.yul\":53:58   */\n      0x00\n        /* \"#utility.yul\":91:97   */\n      dup2\n        /* \"#utility.yul\":78:98   */\n      calldataload\n        /* \"#utility.yul\":69:98   */\n      swap1\n      pop\n        /* \"#utility.yul\":107:140   */\n      tag_97\n        /* \"#utility.yul\":134:139   */\n      dup2\n        /* \"#utility.yul\":107:140   */\n      tag_98\n      jump\t// in\n    tag_97:\n        /* \"#utility.yul\":7:146   */\n      swap3\n      swap2\n      pop\n      pop\n      jump\t// out\n        /* \"#utility.yul\":152:291   */\n    tag_99:\n        /* \"#utility.yul\":198:203   */\n      0x00\n        /* \"#utility.yul\":236:242   */\n      dup2\n        /* \"#utility.yul\":223:243   */\n      calldataload\n        /* \"#utility.yul\":214:243   */\n      swap1\n      pop\n        /* \"#utility.yul\":252:285   */\n      tag_101\n        /* \"#utility.yul\":279:284   */\n      dup2\n        /* \"#utility.yul\":252:285   */\n      tag_102\n      jump\t// in\n    tag_101:\n        /* \"#utility.yul\":152:291   */\n      swap3\n      swap2\n      pop\n      pop\n      jump\t// out\n        /* \"#utility.yul\":297:626   */\n    tag_44:\n        /* \"#utility.yul\":356:362   */\n      0x00\n        /* \"#utility.yul\":405:407   */\n      0x20\n        /* \"#utility.yul\":393:402   */\n      dup3\n        /* \"#utility.yul\":384:391   */\n      dup5\n        /* \"#utility.yul\":380:403   */\n      sub\n        /* \"#utility.yul\":376:408   */\n      slt\n        /* \"#utility.yul\":373:492   */\n      iszero\n      tag_104\n      jumpi\n        /* \"#utility.yul\":411:490   */\n      tag_105\n      tag_106\n      jump\t// in\n    tag_105:\n        /* \"#utility.yul\":373:492   */\n    tag_104:\n        /* \"#utility.yul\":531:532   */\n      0x00\n        /* \"#utility.yul\":556:609   */\n      tag_107\n        /* \"#utility.yul\":601:608   */\n      dup5\n        /* \"#utility.yul\":592:598   */\n      dup3\n        /* \"#utility.yul\":581:590   */\n      dup6\n        /* \"#utility.yul\":577:599   */\n      add\n        /* \"#utility.yul\":556:609   */\n      tag_95\n      jump\t// in\n    tag_107:\n        /* \"#utility.yul\":546:609   */\n      swap2\n      pop\n        /* \"#utility.yul\":502:619   */\n      pop\n        /* \"#utility.yul\":297:626   */\n      swap3\n      swap2\n      pop\n      pop\n      jump\t// out\n        /* \"#utility.yul\":632:1106   */\n    tag_59:\n        /* \"#utility.yul\":700:706   */\n      0x00\n        /* \"#utility.yul\":708:714   */\n      dup1\n        /* \"#utility.yul\":757:759   */\n      0x40\n        /* \"#utility.yul\":745:754   */\n      dup4\n        /* \"#utility.yul\":736:743   */\n      dup6\n        /* \"#utility.yul\":732:755   */\n      sub\n        /* \"#utility.yul\":728:760   */\n      slt\n        /* \"#utility.yul\":725:844   */\n      iszero\n      tag_109\n      jumpi\n        /* \"#utility.yul\":763:842   */\n      tag_110\n      tag_106\n      jump\t// in\n    tag_110:\n        /* \"#utility.yul\":725:844   */\n    tag_109:\n        /* \"#utility.yul\":883:884   */\n      0x00\n        /* \"#utility.yul\":908:961   */\n      tag_111\n        /* \"#utility.yul\":953:960   */\n      dup6\n        /* \"#utility.yul\":944:950   */\n      dup3\n        /* \"#utility.yul\":933:942   */\n      dup7\n        /* \"#utility.yul\":929:951   */\n      add\n        /* \"#utility.yul\":908:961   */\n      tag_95\n      jump\t// in\n    tag_111:\n        /* \"#utility.yul\":898:961   */\n      swap3\n      pop\n        /* \"#utility.yul\":854:971   */\n      pop\n        /* \"#utility.yul\":1010:1012   */\n      0x20\n        /* \"#utility.yul\":1036:1089   */\n      tag_112\n        /* \"#utility.yul\":1081:1088   */\n      dup6\n        /* \"#utility.yul\":1072:1078   */\n      dup3\n        /* \"#utility.yul\":1061:1070   */\n      dup7\n        /* \"#utility.yul\":1057:1079   */\n      add\n        /* \"#utility.yul\":1036:1089   */\n      tag_95\n      jump\t// in\n    tag_112:\n        /* \"#utility.yul\":1026:1089   */\n      swap2\n      pop\n        /* \"#utility.yul\":981:1099   */\n      pop\n        /* \"#utility.yul\":632:1106   */\n      swap3\n      pop\n      swap3\n      swap1\n      pop\n      jump\t// out\n        /* \"#utility.yul\":1112:1731   */\n    tag_31:\n        /* \"#utility.yul\":1189:1195   */\n      0x00\n        /* \"#utility.yul\":1197:1203   */\n      dup1\n        /* \"#utility.yul\":1205:1211   */\n      0x00\n        /* \"#utility.yul\":1254:1256   */\n      0x60\n        /* \"#utility.yul\":1242:1251   */\n      dup5\n        /* \"#utility.yul\":1233:1240   */\n      dup7\n        /* \"#utility.yul\":1229:1252   */\n      sub\n        /* \"#utility.yul\":1225:1257   */\n      slt\n        /* \"#utility.yul\":1222:1341   */\n      iszero\n      tag_114\n      jumpi\n        /* \"#utility.yul\":1260:1339   */\n      tag_115\n      tag_106\n      jump\t// in\n    tag_115:\n        /* \"#utility.yul\":1222:1341   */\n    tag_114:\n        /* \"#utility.yul\":1380:1381   */\n      0x00\n        /* \"#utility.yul\":1405:1458   */\n      tag_116\n        /* \"#utility.yul\":1450:1457   */\n      dup7\n        /* \"#utility.yul\":1441:1447   */\n      dup3\n        /* \"#utility.yul\":1430:1439   */\n      dup8\n        /* \"#utility.yul\":1426:1448   */\n      add\n        /* \"#utility.yul\":1405:1458   */\n      tag_95\n      jump\t// in\n    tag_116:\n        /* \"#utility.yul\":1395:1458   */\n      swap4\n      pop\n        /* \"#utility.yul\":1351:1468   */\n      pop\n        /* \"#utility.yul\":1507:1509   */\n      0x20\n        /* \"#utility.yul\":1533:1586   */\n      tag_117\n        /* \"#utility.yul\":1578:1585   */\n      dup7\n        /* \"#utility.yul\":1569:1575   */\n      dup3\n        /* \"#utility.yul\":1558:1567   */\n      dup8\n        /* \"#utility.yul\":1554:1576   */\n      add\n        /* \"#utility.yul\":1533:1586   */\n      tag_95\n      jump\t// in\n    tag_117:\n        /* \"#utility.yul\":1523:1586   */\n      swap3\n      pop\n        /* \"#utility.yul\":1478:1596   */\n      pop\n        /* \"#utility.yul\":1635:1637   */\n      0x40\n        /* \"#utility.yul\":1661:1714   */\n      tag_118\n        /* \"#utility.yul\":1706:1713   */\n      dup7\n        /* \"#utility.yul\":1697:1703   */\n      dup3\n        /* \"#utility.yul\":1686:1695   */\n      dup8\n        /* \"#utility.yul\":1682:1704   */\n      add\n        /* \"#utility.yul\":1661:1714   */\n      tag_99\n      jump\t// in\n    tag_118:\n        /* \"#utility.yul\":1651:1714   */\n      swap2\n      pop\n        /* \"#utility.yul\":1606:1724   */\n      pop\n        /* \"#utility.yul\":1112:1731   */\n      swap3\n      pop\n      swap3\n      pop\n      swap3\n      jump\t// out\n        /* \"#utility.yul\":1737:2211   */\n    tag_21:\n        /* \"#utility.yul\":1805:1811   */\n      0x00\n        /* \"#utility.yul\":1813:1819   */\n      dup1\n        /* \"#utility.yul\":1862:1864   */\n      0x40\n        /* \"#utility.yul\":1850:1859   */\n      dup4\n        /* \"#utility.yul\":1841:1848   */\n      dup6\n        /* \"#utility.yul\":1837:1860   */\n      sub\n        /* \"#utility.yul\":1833:1865   */\n      slt\n        /* \"#utility.yul\":1830:1949   */\n      iszero\n      tag_120\n      jumpi\n        /* \"#utility.yul\":1868:1947   */\n      tag_121\n      tag_106\n      jump\t// in\n    tag_121:\n        /* \"#utility.yul\":1830:1949   */\n    tag_120:\n        /* \"#utility.yul\":1988:1989   */\n      0x00\n        /* \"#utility.yul\":2013:2066   */\n      tag_122\n        /* \"#utility.yul\":2058:2065   */\n      dup6\n        /* \"#utility.yul\":2049:2055   */\n      dup3\n        /* \"#utility.yul\":2038:2047   */\n      dup7\n        /* \"#utility.yul\":2034:2056   */\n      add\n        /* \"#utility.yul\":2013:2066   */\n      tag_95\n      jump\t// in\n    tag_122:\n        /* \"#utility.yul\":2003:2066   */\n      swap3\n      pop\n        /* \"#utility.yul\":1959:2076   */\n      pop\n        /* \"#utility.yul\":2115:2117   */\n      0x20\n        /* \"#utility.yul\":2141:2194   */\n      tag_123\n        /* \"#utility.yul\":2186:2193   */\n      dup6\n        /* \"#utility.yul\":2177:2183   */\n      dup3\n        /* \"#utility.yul\":2166:2175   */\n      dup7\n        /* \"#utility.yul\":2162:2184   */\n      add\n        /* \"#utility.yul\":2141:2194   */\n      tag_99\n      jump\t// in\n    tag_123:\n        /* \"#utility.yul\":2131:2194   */\n      swap2\n      pop\n        /* \"#utility.yul\":2086:2204   */\n      pop\n        /* \"#utility.yul\":1737:2211   */\n      swap3\n      pop\n      swap3\n      swap1\n      pop\n      jump\t// out\n        /* \"#utility.yul\":2217:2546   */\n    tag_40:\n        /* \"#utility.yul\":2276:2282   */\n      0x00\n        /* \"#utility.yul\":2325:2327   */\n      0x20\n        /* \"#utility.yul\":2313:2322   */\n      dup3\n        /* \"#utility.yul\":2304:2311   */\n      dup5\n        /* \"#utility.yul\":2300:2323   */\n      sub\n        /* \"#utility.yul\":2296:2328   */\n      slt\n        /* \"#utility.yul\":2293:2412   */\n      iszero\n      tag_125\n      jumpi\n        /* \"#utility.yul\":2331:2410   */\n      tag_126\n      tag_106\n      jump\t// in\n    tag_126:\n        /* \"#utility.yul\":2293:2412   */\n    tag_125:\n        /* \"#utility.yul\":2451:2452   */\n      0x00\n        /* \"#utility.yul\":2476:2529   */\n      tag_127\n        /* \"#utility.yul\":2521:2528   */\n      dup5\n        /* \"#utility.yul\":2512:2518   */\n      dup3\n        /* \"#utility.yul\":2501:2510   */\n      dup6\n        /* \"#utility.yul\":2497:2519   */\n      add\n        /* \"#utility.yul\":2476:2529   */\n      tag_99\n      jump\t// in\n    tag_127:\n        /* \"#utility.yul\":2466:2529   */\n      swap2\n      pop\n        /* \"#utility.yul\":2422:2539   */\n      pop\n        /* \"#utility.yul\":2217:2546   */\n      swap3\n      swap2\n      pop\n      pop\n      jump\t// out\n        /* \"#utility.yul\":2552:2661   */\n    tag_128:\n        /* \"#utility.yul\":2633:2654   */\n      tag_130\n        /* \"#utility.yul\":2648:2653   */\n      dup2\n        /* \"#utility.yul\":2633:2654   */\n      tag_131\n      jump\t// in\n    tag_130:\n        /* \"#utility.yul\":2628:2631   */\n      dup3\n        /* \"#utility.yul\":2621:2655   */\n      mstore\n        /* \"#utility.yul\":2552:2661   */\n      pop\n      pop\n      jump\t// out\n        /* \"#utility.yul\":2667:3031   */\n    tag_132:\n        /* \"#utility.yul\":2755:2758   */\n      0x00\n        /* \"#utility.yul\":2783:2822   */\n      tag_134\n        /* \"#utility.yul\":2816:2821   */\n      dup3\n        /* \"#utility.yul\":2783:2822   */\n      tag_135\n      jump\t// in\n    tag_134:\n        /* \"#utility.yul\":2838:2909   */\n      tag_136\n        /* \"#utility.yul\":2902:2908   */\n      dup2\n        /* \"#utility.yul\":2897:2900   */\n      dup6\n        /* \"#utility.yul\":2838:2909   */\n      tag_137\n      jump\t// in\n    tag_136:\n        /* \"#utility.yul\":2831:2909   */\n      swap4\n      pop\n        /* \"#utility.yul\":2918:2970   */\n      tag_138\n        /* \"#utility.yul\":2963:2969   */\n      dup2\n        /* \"#utility.yul\":2958:2961   */\n      dup6\n        /* \"#utility.yul\":2951:2955   */\n      0x20\n        /* \"#utility.yul\":2944:2949   */\n      dup7\n        /* \"#utility.yul\":2940:2956   */\n      add\n        /* \"#utility.yul\":2918:2970   */\n      tag_139\n      jump\t// in\n    tag_138:\n        /* \"#utility.yul\":2995:3024   */\n      tag_140\n        /* \"#utility.yul\":3017:3023   */\n      dup2\n        /* \"#utility.yul\":2995:3024   */\n      tag_141\n      jump\t// in\n    tag_140:\n        /* \"#utility.yul\":2990:2993   */\n      dup5\n        /* \"#utility.yul\":2986:3025   */\n      add\n        /* \"#utility.yul\":2979:3025   */\n      swap2\n      pop\n        /* \"#utility.yul\":2759:3031   */\n      pop\n        /* \"#utility.yul\":2667:3031   */\n      swap3\n      swap2\n      pop\n      pop\n      jump\t// out\n        /* \"#utility.yul\":3037:3155   */\n    tag_142:\n        /* \"#utility.yul\":3124:3148   */\n      tag_144\n        /* \"#utility.yul\":3142:3147   */\n      dup2\n        /* \"#utility.yul\":3124:3148   */\n      tag_145\n      jump\t// in\n    tag_144:\n        /* \"#utility.yul\":3119:3122   */\n      dup3\n        /* \"#utility.yul\":3112:3149   */\n      mstore\n        /* \"#utility.yul\":3037:3155   */\n      pop\n      pop\n      jump\t// out\n        /* \"#utility.yul\":3161:3273   */\n    tag_146:\n        /* \"#utility.yul\":3244:3266   */\n      tag_148\n        /* \"#utility.yul\":3260:3265   */\n      dup2\n        /* \"#utility.yul\":3244:3266   */\n      tag_149\n      jump\t// in\n    tag_148:\n        /* \"#utility.yul\":3239:3242   */\n      dup3\n        /* \"#utility.yul\":3232:3267   */\n      mstore\n        /* \"#utility.yul\":3161:3273   */\n      pop\n      pop\n      jump\t// out\n        /* \"#utility.yul\":3279:3489   */\n    tag_24:\n        /* \"#utility.yul\":3366:3370   */\n      0x00\n        /* \"#utility.yul\":3404:3406   */\n      0x20\n        /* \"#utility.yul\":3393:3402   */\n      dup3\n        /* \"#utility.yul\":3389:3407   */\n      add\n        /* \"#utility.yul\":3381:3407   */\n      swap1\n      pop\n        /* \"#utility.yul\":3417:3482   */\n      tag_151\n        /* \"#utility.yul\":3479:3480   */\n      0x00\n        /* \"#utility.yul\":3468:3477   */\n      dup4\n        /* \"#utility.yul\":3464:3481   */\n      add\n        /* \"#utility.yul\":3455:3461   */\n      dup5\n        /* \"#utility.yul\":3417:3482   */\n      tag_128\n      jump\t// in\n    tag_151:\n        /* \"#utility.yul\":3279:3489   */\n      swap3\n      swap2\n      pop\n      pop\n      jump\t// out\n        /* \"#utility.yul\":3495:3808   */\n    tag_18:\n        /* \"#utility.yul\":3608:3612   */\n      0x00\n        /* \"#utility.yul\":3646:3648   */\n      0x20\n        /* \"#utility.yul\":3635:3644   */\n      dup3\n        /* \"#utility.yul\":3631:3649   */\n      add\n        /* \"#utility.yul\":3623:3649   */\n      swap1\n      pop\n        /* \"#utility.yul\":3695:3704   */\n      dup2\n        /* \"#utility.yul\":3689:3693   */\n      dup2\n        /* \"#utility.yul\":3685:3705   */\n      sub\n        /* \"#utility.yul\":3681:3682   */\n      0x00\n        /* \"#utility.yul\":3670:3679   */\n      dup4\n        /* \"#utility.yul\":3666:3683   */\n      add\n        /* \"#utility.yul\":3659:3706   */\n      mstore\n        /* \"#utility.yul\":3723:3801   */\n      tag_153\n        /* \"#utility.yul\":3796:3800   */\n      dup2\n        /* \"#utility.yul\":3787:3793   */\n      dup5\n        /* \"#utility.yul\":3723:3801   */\n      tag_132\n      jump\t// in\n    tag_153:\n        /* \"#utility.yul\":3715:3801   */\n      swap1\n      pop\n        /* \"#utility.yul\":3495:3808   */\n      swap3\n      swap2\n      pop\n      pop\n      jump\t// out\n        /* \"#utility.yul\":3814:4036   */\n    tag_28:\n        /* \"#utility.yul\":3907:3911   */\n      0x00\n        /* \"#utility.yul\":3945:3947   */\n      0x20\n        /* \"#utility.yul\":3934:3943   */\n      dup3\n        /* \"#utility.yul\":3930:3948   */\n      add\n        /* \"#utility.yul\":3922:3948   */\n      swap1\n      pop\n        /* \"#utility.yul\":3958:4029   */\n      tag_155\n        /* \"#utility.yul\":4026:4027   */\n      0x00\n        /* \"#utility.yul\":4015:4024   */\n      dup4\n        /* \"#utility.yul\":4011:4028   */\n      add\n        /* \"#utility.yul\":4002:4008   */\n      dup5\n        /* \"#utility.yul\":3958:4029   */\n      tag_142\n      jump\t// in\n    tag_155:\n        /* \"#utility.yul\":3814:4036   */\n      swap3\n      swap2\n      pop\n      pop\n      jump\t// out\n        /* \"#utility.yul\":4042:4256   */\n    tag_37:\n        /* \"#utility.yul\":4131:4135   */\n      0x00\n        /* \"#utility.yul\":4169:4171   */\n      0x20\n        /* \"#utility.yul\":4158:4167   */\n      dup3\n        /* \"#utility.yul\":4154:4172   */\n      add\n        /* \"#utility.yul\":4146:4172   */\n      swap1\n      pop\n        /* \"#utility.yul\":4182:4249   */\n      tag_157\n        /* \"#utility.yul\":4246:4247   */\n      0x00\n        /* \"#utility.yul\":4235:4244   */\n      dup4\n        /* \"#utility.yul\":4231:4248   */\n      add\n        /* \"#utility.yul\":4222:4228   */\n      dup5\n        /* \"#utility.yul\":4182:4249   */\n      tag_146\n      jump\t// in\n    tag_157:\n        /* \"#utility.yul\":4042:4256   */\n      swap3\n      swap2\n      pop\n      pop\n      jump\t// out\n        /* \"#utility.yul\":4343:4442   */\n    tag_135:\n        /* \"#utility.yul\":4395:4401   */\n      0x00\n        /* \"#utility.yul\":4429:4434   */\n      dup2\n        /* \"#utility.yul\":4423:4435   */\n      mload\n        /* \"#utility.yul\":4413:4435   */\n      swap1\n      pop\n        /* \"#utility.yul\":4343:4442   */\n      swap2\n      swap1\n      pop\n      jump\t// out\n        /* \"#utility.yul\":4448:4617   */\n    tag_137:\n        /* \"#utility.yul\":4532:4543   */\n      0x00\n        /* \"#utility.yul\":4566:4572   */\n      dup3\n        /* \"#utility.yul\":4561:4564   */\n      dup3\n        /* \"#utility.yul\":4554:4573   */\n      mstore\n        /* \"#utility.yul\":4606:4610   */\n      0x20\n        /* \"#utility.yul\":4601:4604   */\n      dup3\n        /* \"#utility.yul\":4597:4611   */\n      add\n        /* \"#utility.yul\":4582:4611   */\n      swap1\n      pop\n        /* \"#utility.yul\":4448:4617   */\n      swap3\n      swap2\n      pop\n      pop\n      jump\t// out\n        /* \"#utility.yul\":4623:4928   */\n    tag_75:\n        /* \"#utility.yul\":4663:4666   */\n      0x00\n        /* \"#utility.yul\":4682:4702   */\n      tag_163\n        /* \"#utility.yul\":4700:4701   */\n      dup3\n        /* \"#utility.yul\":4682:4702   */\n      tag_145\n      jump\t// in\n    tag_163:\n        /* \"#utility.yul\":4677:4702   */\n      swap2\n      pop\n        /* \"#utility.yul\":4716:4736   */\n      tag_164\n        /* \"#utility.yul\":4734:4735   */\n      dup4\n        /* \"#utility.yul\":4716:4736   */\n      tag_145\n      jump\t// in\n    tag_164:\n        /* \"#utility.yul\":4711:4736   */\n      swap3\n      pop\n        /* \"#utility.yul\":4870:4871   */\n      dup3\n        /* \"#utility.yul\":4802:4868   */\n      0xffffffffffffffffffffffffffffffffffffffffffffffffffffffffffffffff\n        /* \"#utility.yul\":4798:4872   */\n      sub\n        /* \"#utility.yul\":4795:4796   */\n      dup3\n        /* \"#utility.yul\":4792:4873   */\n      gt\n        /* \"#utility.yul\":4789:4896   */\n      iszero\n      tag_165\n      jumpi\n        /* \"#utility.yul\":4876:4894   */\n      tag_166\n      tag_167\n      jump\t// in\n    tag_166:\n        /* \"#utility.yul\":4789:4896   */\n    tag_165:\n        /* \"#utility.yul\":4920:4921   */\n      dup3\n        /* \"#utility.yul\":4917:4918   */\n      dup3\n        /* \"#utility.yul\":4913:4922   */\n      add\n        /* \"#utility.yul\":4906:4922   */\n      swap1\n      pop\n        /* \"#utility.yul\":4623:4928   */\n      swap3\n      swap2\n      pop\n      pop\n      jump\t// out\n        /* \"#utility.yul\":4934:5125   */\n    tag_72:\n        /* \"#utility.yul\":4974:4978   */\n      0x00\n        /* \"#utility.yul\":4994:5014   */\n      tag_169\n        /* \"#utility.yul\":5012:5013   */\n      dup3\n        /* \"#utility.yul\":4994:5014   */\n      tag_145\n      jump\t// in\n    tag_169:\n        /* \"#utility.yul\":4989:5014   */\n      swap2\n      pop\n        /* \"#utility.yul\":5028:5048   */\n      tag_170\n        /* \"#utility.yul\":5046:5047   */\n      dup4\n        /* \"#utility.yul\":5028:5048   */\n      tag_145\n      jump\t// in\n    tag_170:\n        /* \"#utility.yul\":5023:5048   */\n      swap3\n      pop\n        /* \"#utility.yul\":5067:5068   */\n      dup3\n        /* \"#utility.yul\":5064:5065   */\n      dup3\n        /* \"#utility.yul\":5061:5069   */\n      lt\n        /* \"#utility.yul\":5058:5092   */\n      iszero\n      tag_171\n      jumpi\n        /* \"#utility.yul\":5072:5090   */\n      tag_172\n      tag_167\n      jump\t// in\n    tag_172:\n        /* \"#utility.yul\":5058:5092   */\n    tag_171:\n        /* \"#utility.yul\":5117:5118   */\n      dup3\n        /* \"#utility.yul\":5114:5115   */\n      dup3\n        /* \"#utility.yul\":5110:5119   */\n      sub\n        /* \"#utility.yul\":5102:5119   */\n      swap1\n      pop\n        /* \"#utility.yul\":4934:5125   */\n      swap3\n      swap2\n      pop\n      pop\n      jump\t// out\n        /* \"#utility.yul\":5131:5227   */\n    tag_173:\n        /* \"#utility.yul\":5168:5175   */\n      0x00\n        /* \"#utility.yul\":5197:5221   */\n      tag_175\n        /* \"#utility.yul\":5215:5220   */\n      dup3\n        /* \"#utility.yul\":5197:5221   */\n      tag_176\n      jump\t// in\n    tag_175:\n        /* \"#utility.yul\":5186:5221   */\n      swap1\n      pop\n        /* \"#utility.yul\":5131:5227   */\n      swap2\n      swap1\n      pop\n      jump\t// out\n        /* \"#utility.yul\":5233:5323   */\n    tag_131:\n        /* \"#utility.yul\":5267:5274   */\n      0x00\n        /* \"#utility.yul\":5310:5315   */\n      dup2\n        /* \"#utility.yul\":5303:5316   */\n      iszero\n        /* \"#utility.yul\":5296:5317   */\n      iszero\n        /* \"#utility.yul\":5285:5317   */\n      swap1\n      pop\n        /* \"#utility.yul\":5233:5323   */\n      swap2\n      swap1\n      pop\n      jump\t// out\n        /* \"#utility.yul\":5329:5455   */\n    tag_176:\n        /* \"#utility.yul\":5366:5373   */\n      0x00\n        /* \"#utility.yul\":5406:5448   */\n      0xffffffffffffffffffffffffffffffffffffffff\n        /* \"#utility.yul\":5399:5404   */\n      dup3\n        /* \"#utility.yul\":5395:5449   */\n      and\n        /* \"#utility.yul\":5384:5449   */\n      swap1\n      pop\n        /* \"#utility.yul\":5329:5455   */\n      swap2\n      swap1\n      pop\n      jump\t// out\n        /* \"#utility.yul\":5461:5538   */\n    tag_145:\n        /* \"#utility.yul\":5498:5505   */\n      0x00\n        /* \"#utility.yul\":5527:5532   */\n      dup2\n        /* \"#utility.yul\":5516:5532   */\n      swap1\n      pop\n        /* \"#utility.yul\":5461:5538   */\n      swap2\n      swap1\n      pop\n      jump\t// out\n        /* \"#utility.yul\":5544:5630   */\n    tag_149:\n        /* \"#utility.yul\":5579:5586   */\n      0x00\n        /* \"#utility.yul\":5619:5623   */\n      0xff\n        /* \"#utility.yul\":5612:5617   */\n      dup3\n        /* \"#utility.yul\":5608:5624   */\n      and\n        /* \"#utility.yul\":5597:5624   */\n      swap1\n      pop\n        /* \"#utility.yul\":5544:5630   */\n      swap2\n      swap1\n      pop\n      jump\t// out\n        /* \"#utility.yul\":5636:5943   */\n    tag_139:\n        /* \"#utility.yul\":5704:5705   */\n      0x00\n        /* \"#utility.yul\":5714:5827   */\n    tag_182:\n        /* \"#utility.yul\":5728:5734   */\n      dup4\n        /* \"#utility.yul\":5725:5726   */\n      dup2\n        /* \"#utility.yul\":5722:5735   */\n      lt\n        /* \"#utility.yul\":5714:5827   */\n      iszero\n      tag_184\n      jumpi\n        /* \"#utility.yul\":5813:5814   */\n      dup1\n        /* \"#utility.yul\":5808:5811   */\n      dup3\n        /* \"#utility.yul\":5804:5815   */\n      add\n        /* \"#utility.yul\":5798:5816   */\n      mload\n        /* \"#utility.yul\":5794:5795   */\n      dup2\n        /* \"#utility.yul\":5789:5792   */\n      dup5\n        /* \"#utility.yul\":5785:5796   */\n      add\n        /* \"#utility.yul\":5778:5817   */\n      mstore\n        /* \"#utility.yul\":5750:5752   */\n      0x20\n        /* \"#utility.yul\":5747:5748   */\n      dup2\n        /* \"#utility.yul\":5743:5753   */\n      add\n        /* \"#utility.yul\":5738:5753   */\n      swap1\n      pop\n        /* \"#utility.yul\":5714:5827   */\n      jump(tag_182)\n    tag_184:\n        /* \"#utility.yul\":5845:5851   */\n      dup4\n        /* \"#utility.yul\":5842:5843   */\n      dup2\n        /* \"#utility.yul\":5839:5852   */\n      gt\n        /* \"#utility.yul\":5836:5937   */\n      iszero\n      tag_185\n      jumpi\n        /* \"#utility.yul\":5925:5926   */\n      0x00\n        /* \"#utility.yul\":5916:5922   */\n      dup5\n        /* \"#utility.yul\":5911:5914   */\n      dup5\n        /* \"#utility.yul\":5907:5923   */\n      add\n        /* \"#utility.yul\":5900:5927   */\n      mstore\n        /* \"#utility.yul\":5836:5937   */\n    tag_185:\n        /* \"#utility.yul\":5685:5943   */\n      pop\n        /* \"#utility.yul\":5636:5943   */\n      pop\n      pop\n      pop\n      jump\t// out\n        /* \"#utility.yul\":5949:6269   */\n    tag_63:\n        /* \"#utility.yul\":5993:5999   */\n      0x00\n        /* \"#utility.yul\":6030:6031   */\n      0x02\n        /* \"#utility.yul\":6024:6028   */\n      dup3\n        /* \"#utility.yul\":6020:6032   */\n      div\n        /* \"#utility.yul\":6010:6032   */\n      swap1\n      pop\n        /* \"#utility.yul\":6077:6078   */\n      0x01\n        /* \"#utility.yul\":6071:6075   */\n      dup3\n        /* \"#utility.yul\":6067:6079   */\n      and\n        /* \"#utility.yul\":6098:6116   */\n      dup1\n        /* \"#utility.yul\":6088:6169   */\n      tag_187\n      jumpi\n        /* \"#utility.yul\":6154:6158   */\n      0x7f\n        /* \"#utility.yul\":6146:6152   */\n      dup3\n        /* \"#utility.yul\":6142:6159   */\n      and\n        /* \"#utility.yul\":6132:6159   */\n      swap2\n      pop\n        /* \"#utility.yul\":6088:6169   */\n    tag_187:\n        /* \"#utility.yul\":6216:6218   */\n      0x20\n        /* \"#utility.yul\":6208:6214   */\n      dup3\n        /* \"#utility.yul\":6205:6219   */\n      lt\n        /* \"#utility.yul\":6185:6203   */\n      dup2\n        /* \"#utility.yul\":6182:6220   */\n      eq\n        /* \"#utility.yul\":6179:6263   */\n      iszero\n      tag_188\n      jumpi\n        /* \"#utility.yul\":6235:6253   */\n      tag_189\n      tag_190\n      jump\t// in\n    tag_189:\n        /* \"#utility.yul\":6179:6263   */\n    tag_188:\n        /* \"#utility.yul\":6000:6269   */\n      pop\n        /* \"#utility.yul\":5949:6269   */\n      swap2\n      swap1\n      pop\n      jump\t// out\n        /* \"#utility.yul\":6275:6455   */\n    tag_167:\n        /* \"#utility.yul\":6323:6400   */\n      0x4e487b7100000000000000000000000000000000000000000000000000000000\n        /* \"#utility.yul\":6320:6321   */\n      0x00\n        /* \"#utility.yul\":6313:6401   */\n      mstore\n        /* \"#utility.yul\":6420:6424   */\n      0x11\n        /* \"#utility.yul\":6417:6418   */\n      0x04\n        /* \"#utility.yul\":6410:6425   */\n      mstore\n        /* \"#utility.yul\":6444:6448   */\n      0x24\n        /* \"#utility.yul\":6441:6442   */\n      0x00\n        /* \"#utility.yul\":6434:6449   */\n      revert\n        /* \"#utility.yul\":6461:6641   */\n    tag_190:\n        /* \"#utility.yul\":6509:6586   */\n      0x4e487b7100000000000000000000000000000000000000000000000000000000\n        /* \"#utility.yul\":6506:6507   */\n      0x00\n        /* \"#utility.yul\":6499:6587   */\n      mstore\n        /* \"#utility.yul\":6606:6610   */\n      0x22\n        /* \"#utility.yul\":6603:6604   */\n      0x04\n        /* \"#utility.yul\":6596:6611   */\n      mstore\n        /* \"#utility.yul\":6630:6634   */\n      0x24\n        /* \"#utility.yul\":6627:6628   */\n      0x00\n        /* \"#utility.yul\":6620:6635   */\n      revert\n        /* \"#utility.yul\":6770:6887   */\n    tag_106:\n        /* \"#utility.yul\":6879:6880   */\n      0x00\n        /* \"#utility.yul\":6876:6877   */\n      dup1\n        /* \"#utility.yul\":6869:6881   */\n      revert\n        /* \"#utility.yul\":6893:6995   */\n    tag_141:\n        /* \"#utility.yul\":6934:6940   */\n      0x00\n        /* \"#utility.yul\":6985:6987   */\n      0x1f\n        /* \"#utility.yul\":6981:6988   */\n      not\n        /* \"#utility.yul\":6976:6978   */\n      0x1f\n        /* \"#utility.yul\":6969:6974   */\n      dup4\n        /* \"#utility.yul\":6965:6979   */\n      add\n        /* \"#utility.yul\":6961:6989   */\n      and\n        /* \"#utility.yul\":6951:6989   */\n      swap1\n      pop\n        /* \"#utility.yul\":6893:6995   */\n      swap2\n      swap1\n      pop\n      jump\t// out\n        /* \"#utility.yul\":7001:7123   */\n    tag_98:\n        /* \"#utility.yul\":7074:7098   */\n      tag_198\n        /* \"#utility.yul\":7092:7097   */\n      dup2\n        /* \"#utility.yul\":7074:7098   */\n      tag_173\n      jump\t// in\n    tag_198:\n        /* \"#utility.yul\":7067:7072   */\n      dup2\n        /* \"#utility.yul\":7064:7099   */\n      eq\n        /* \"#utility.yul\":7054:7117   */\n      tag_199\n      jumpi\n        /* \"#utility.yul\":7113:7114   */\n      0x00\n        /* \"#utility.yul\":7110:7111   */\n      dup1\n        /* \"#utility.yul\":7103:7115   */\n      revert\n        /* \"#utility.yul\":7054:7117   */\n    tag_199:\n        /* \"#utility.yul\":7001:7123   */\n      pop\n      jump\t// out\n        /* \"#utility.yul\":7129:7251   */\n    tag_102:\n        /* \"#utility.yul\":7202:7226   */\n      tag_201\n        /* \"#utility.yul\":7220:7225   */\n      dup2\n        /* \"#utility.yul\":7202:7226   */\n      tag_145\n      jump\t// in\n    tag_201:\n        /* \"#utility.yul\":7195:7200   */\n      dup2\n        /* \"#utility.yul\":7192:7227   */\n      eq\n        /* \"#utility.yul\":7182:7245   */\n      tag_202\n      jumpi\n        /* \"#utility.yul\":7241:7242   */\n      0x00\n        /* \"#utility.yul\":7238:7239   */\n      dup1\n        /* \"#utility.yul\":7231:7243   */\n      revert\n        /* \"#utility.yul\":7182:7245   */\n    tag_202:\n        /* \"#utility.yul\":7129:7251   */\n      pop\n      jump\t// out\n\n    auxdata: 0xa2646970667358221220f3e76636df9c10561e45790da77bed8289a2539a6cecd3ffe3276d4cd50fcbd064736f6c63430008070033\n}\n",
				"bytecode": {
					"linkReferences": {},
					"object": "60806040526012600560006101000a81548160ff021916908360ff1602179055503480156200002d57600080fd5b5060405162001166380380620011668339818101604052810190620000539190620001bb565b81600390805190602001906200006b9291906200008d565b508060049080519060200190620000849291906200008d565b505050620003c4565b8280546200009b90620002d5565b90600052602060002090601f016020900481019282620000bf57600085556200010b565b82601f10620000da57805160ff19168380011785556200010b565b828001600101855582156200010b579182015b828111156200010a578251825591602001919060010190620000ed565b5b5090506200011a91906200011e565b5090565b5b80821115620001395760008160009055506001016200011f565b5090565b6000620001546200014e8462000269565b62000240565b905082815260208101848484011115620001735762000172620003a4565b5b620001808482856200029f565b509392505050565b600082601f830112620001a0576200019f6200039f565b5b8151620001b28482602086016200013d565b91505092915050565b60008060408385031215620001d557620001d4620003ae565b5b600083015167ffffffffffffffff811115620001f657620001f5620003a9565b5b620002048582860162000188565b925050602083015167ffffffffffffffff811115620002285762000227620003a9565b5b620002368582860162000188565b9150509250929050565b60006200024c6200025f565b90506200025a82826200030b565b919050565b6000604051905090565b600067ffffffffffffffff82111562000287576200028662000370565b5b6200029282620003b3565b9050602081019050919050565b60005b83811015620002bf578082015181840152602081019050620002a2565b83811115620002cf576000848401525b50505050565b60006002820490506001821680620002ee57607f821691505b6020821081141562000305576200030462000341565b5b50919050565b6200031682620003b3565b810181811067ffffffffffffffff8211171562000338576200033762000370565b5b80604052505050565b7f4e487b7100000000000000000000000000000000000000000000000000000000600052602260045260246000fd5b7f4e487b7100000000000000000000000000000000000000000000000000000000600052604160045260246000fd5b600080fd5b600080fd5b600080fd5b600080fd5b6000601f19601f8301169050919050565b610d9280620003d46000396000f3fe608060405234801561001057600080fd5b50600436106100a95760003560e01c806342966c681161007157806342966c681461016857806370a082311461018457806395d89b41146101b4578063a0712d68146101d2578063a9059cbb146101ee578063dd62ed3e1461021e576100a9565b806306fdde03146100ae578063095ea7b3146100cc57806318160ddd146100fc57806323b872dd1461011a578063313ce5671461014a575b600080fd5b6100b661024e565b6040516100c39190610b02565b60405180910390f35b6100e660048036038101906100e19190610a14565b6102dc565b6040516100f39190610ae7565b60405180910390f35b6101046103ce565b6040516101119190610b24565b60405180910390f35b610134600480360381019061012f91906109c1565b6103d4565b6040516101419190610ae7565b60405180910390f35b610152610583565b60405161015f9190610b3f565b60405180910390f35b610182600480360381019061017d9190610a54565b610596565b005b61019e60048036038101906101999190610954565b61066d565b6040516101ab9190610b24565b60405180910390f35b6101bc610685565b6040516101c99190610b02565b60405180910390f35b6101ec60048036038101906101e79190610a54565b610713565b005b61020860048036038101906102039190610a14565b6107ea565b6040516102159190610ae7565b60405180910390f35b61023860048036038101906102339190610981565b610905565b6040516102459190610b24565b60405180910390f35b6003805461025b90610c88565b80601f016020809104026020016040519081016040528092919081815260200182805461028790610c88565b80156102d45780601f106102a9576101008083540402835291602001916102d4565b820191906000526020600020905b8154815290600101906020018083116102b757829003601f168201915b505050505081565b600081600160003373ffffffffffffffffffffffffffffffffffffffff1673ffffffffffffffffffffffffffffffffffffffff16815260200190815260200160002060008573ffffffffffffffffffffffffffffffffffffffff1673ffffffffffffffffffffffffffffffffffffffff168152602001908152602001600020819055508273ffffffffffffffffffffffffffffffffffffffff163373ffffffffffffffffffffffffffffffffffffffff167f8c5be1e5ebec7d5bd14f71427d1e84f3dd0314c0f7b2291e5b200ac8c7c3b925846040516103bc9190610b24565b60405180910390a36001905092915050565b60025481565b600081600160008673ffffffffffffffffffffffffffffffffffffffff1673ffffffffffffffffffffffffffffffffffffffff16815260200190815260200160002060003373ffffffffffffffffffffffffffffffffffffffff1673ffffffffffffffffffffffffffffffffffffffff16815260200190815260200160002060008282546104629190610bcc565b92505081905550816000808673ffffffffffffffffffffffffffffffffffffffff1673ffffffffffffffffffffffffffffffffffffffff16815260200190815260200160002060008282546104b79190610bcc565b92505081905550816000808573ffffffffffffffffffffffffffffffffffffffff1673ffffffffffffffffffffffffffffffffffffffff168152602001908152602001600020600082825461050c9190610b76565b925050819055508273ffffffffffffffffffffffffffffffffffffffff168473ffffffffffffffffffffffffffffffffffffffff167fddf252ad1be2c89b69c2b068fc378daa952ba7f163c4a11628f55a4df523b3ef846040516105709190610b24565b60405180910390a3600190509392505050565b600560009054906101000a900460ff1681565b806000803373ffffffffffffffffffffffffffffffffffffffff1673ffffffffffffffffffffffffffffffffffffffff16815260200190815260200160002060008282546105e49190610bcc565b9250508190555080600260008282546105fd9190610bcc565b92505081905550600073ffffffffffffffffffffffffffffffffffffffff163373ffffffffffffffffffffffffffffffffffffffff167fddf252ad1be2c89b69c2b068fc378daa952ba7f163c4a11628f55a4df523b3ef836040516106629190610b24565b60405180910390a350565b60006020528060005260406000206000915090505481565b6004805461069290610c88565b80601f01602080910402602001604051908101604052809291908181526020018280546106be90610c88565b801561070b5780601f106106e05761010080835404028352916020019161070b565b820191906000526020600020905b8154815290600101906020018083116106ee57829003601f168201915b505050505081565b806000803373ffffffffffffffffffffffffffffffffffffffff1673ffffffffffffffffffffffffffffffffffffffff16815260200190815260200160002060008282546107619190610b76565b92505081905550806002600082825461077a9190610b76565b925050819055503373ffffffffffffffffffffffffffffffffffffffff16600073ffffffffffffffffffffffffffffffffffffffff167fddf252ad1be2c89b69c2b068fc378daa952ba7f163c4a11628f55a4df523b3ef836040516107df9190610b24565b60405180910390a350565b6000816000803373ffffffffffffffffffffffffffffffffffffffff1673ffffffffffffffffffffffffffffffffffffffff168152602001908152602001600020600082825461083a9190610bcc565b92505081905550816000808573ffffffffffffffffffffffffffffffffffffffff1673ffffffffffffffffffffffffffffffffffffffff168152602001908152602001600020600082825461088f9190610bcc565b925050819055508273ffffffffffffffffffffffffffffffffffffffff163373ffffffffffffffffffffffffffffffffffffffff167fddf252ad1be2c89b69c2b068fc378daa952ba7f163c4a11628f55a4df523b3ef846040516108f39190610b24565b60405180910390a36001905092915050565b6001602052816000526040600020602052806000526040600020600091509150505481565b60008135905061093981610d2e565b92915050565b60008135905061094e81610d45565b92915050565b60006020828403121561096a57610969610d18565b5b60006109788482850161092a565b91505092915050565b6000806040838503121561099857610997610d18565b5b60006109a68582860161092a565b92505060206109b78582860161092a565b9150509250929050565b6000806000606084860312156109da576109d9610d18565b5b60006109e88682870161092a565b93505060206109f98682870161092a565b9250506040610a0a8682870161093f565b9150509250925092565b60008060408385031215610a2b57610a2a610d18565b5b6000610a398582860161092a565b9250506020610a4a8582860161093f565b9150509250929050565b600060208284031215610a6a57610a69610d18565b5b6000610a788482850161093f565b91505092915050565b610a8a81610c12565b82525050565b6000610a9b82610b5a565b610aa58185610b65565b9350610ab5818560208601610c55565b610abe81610d1d565b840191505092915050565b610ad281610c3e565b82525050565b610ae181610c48565b82525050565b6000602082019050610afc6000830184610a81565b92915050565b60006020820190508181036000830152610b1c8184610a90565b905092915050565b6000602082019050610b396000830184610ac9565b92915050565b6000602082019050610b546000830184610ad8565b92915050565b600081519050919050565b600082825260208201905092915050565b6000610b8182610c3e565b9150610b8c83610c3e565b9250827fffffffffffffffffffffffffffffffffffffffffffffffffffffffffffffffff03821115610bc157610bc0610cba565b5b828201905092915050565b6000610bd782610c3e565b9150610be283610c3e565b925082821015610bf557610bf4610cba565b5b828203905092915050565b6000610c0b82610c1e565b9050919050565b60008115159050919050565b600073ffffffffffffffffffffffffffffffffffffffff82169050919050565b6000819050919050565b600060ff82169050919050565b60005b83811015610c73578082015181840152602081019050610c58565b83811115610c82576000848401525b50505050565b60006002820490506001821680610ca057607f821691505b60208210811415610cb457610cb3610ce9565b5b50919050565b7f4e487b7100000000000000000000000000000000000000000000000000000000600052601160045260246000fd5b7f4e487b7100000000000000000000000000000000000000000000000000000000600052602260045260246000fd5b600080fd5b6000601f19601f8301169050919050565b610d3781610c00565b8114610d4257600080fd5b50565b610d4e81610c3e565b8114610d5957600080fd5b5056fea2646970667358221220f3e76636df9c10561e45790da77bed8289a2539a6cecd3ffe3276d4cd50fcbd064736f6c63430008070033",
					"opcodes": "PUSH1 0x80 PUSH1 0x40 MSTORE PUSH1 0x12 PUSH1 0x5 PUSH1 0x0 PUSH2 0x100 EXP DUP2 SLOAD DUP2 PUSH1 0xFF MUL NOT AND SWAP1 DUP4 PUSH1 0xFF AND MUL OR SWAP1 SSTORE POP CALLVALUE DUP1 ISZERO PUSH3 0x2D JUMPI PUSH1 0x0 DUP1 REVERT JUMPDEST POP PUSH1 0x40 MLOAD PUSH3 0x1166 CODESIZE SUB DUP1 PUSH3 0x1166 DUP4 CODECOPY DUP2 DUP2 ADD PUSH1 0x40 MSTORE DUP2 ADD SWAP1 PUSH3 0x53 SWAP2 SWAP1 PUSH3 0x1BB JUMP JUMPDEST DUP2 PUSH1 0x3 SWAP1 DUP1 MLOAD SWAP1 PUSH1 0x20 ADD SWAP1 PUSH3 0x6B SWAP3 SWAP2 SWAP1 PUSH3 0x8D JUMP JUMPDEST POP DUP1 PUSH1 0x4 SWAP1 DUP1 MLOAD SWAP1 PUSH1 0x20 ADD SWAP1 PUSH3 0x84 SWAP3 SWAP2 SWAP1 PUSH3 0x8D JUMP JUMPDEST POP POP POP PUSH3 0x3C4 JUMP JUMPDEST DUP3 DUP1 SLOAD PUSH3 0x9B SWAP1 PUSH3 0x2D5 JUMP JUMPDEST SWAP1 PUSH1 0x0 MSTORE PUSH1 0x20 PUSH1 0x0 KECCAK256 SWAP1 PUSH1 0x1F ADD PUSH1 0x20 SWAP1 DIV DUP2 ADD SWAP3 DUP3 PUSH3 0xBF JUMPI PUSH1 0x0 DUP6 SSTORE PUSH3 0x10B JUMP JUMPDEST DUP3 PUSH1 0x1F LT PUSH3 0xDA JUMPI DUP1 MLOAD PUSH1 0xFF NOT AND DUP4 DUP1 ADD OR DUP6 SSTORE PUSH3 0x10B JUMP JUMPDEST DUP3 DUP1 ADD PUSH1 0x1 ADD DUP6 SSTORE DUP3 ISZERO PUSH3 0x10B JUMPI SWAP2 DUP3 ADD JUMPDEST DUP3 DUP2 GT ISZERO PUSH3 0x10A JUMPI DUP3 MLOAD DUP3 SSTORE SWAP2 PUSH1 0x20 ADD SWAP2 SWAP1 PUSH1 0x1 ADD SWAP1 PUSH3 0xED JUMP JUMPDEST JUMPDEST POP SWAP1 POP PUSH3 0x11A SWAP2 SWAP1 PUSH3 0x11E JUMP JUMPDEST POP SWAP1 JUMP JUMPDEST JUMPDEST DUP1 DUP3 GT ISZERO PUSH3 0x139 JUMPI PUSH1 0x0 DUP2 PUSH1 0x0 SWAP1 SSTORE POP PUSH1 0x1 ADD PUSH3 0x11F JUMP JUMPDEST POP SWAP1 JUMP JUMPDEST PUSH1 0x0 PUSH3 0x154 PUSH3 0x14E DUP5 PUSH3 0x269 JUMP JUMPDEST PUSH3 0x240 JUMP JUMPDEST SWAP1 POP DUP3 DUP2 MSTORE PUSH1 0x20 DUP2 ADD DUP5 DUP5 DUP5 ADD GT ISZERO PUSH3 0x173 JUMPI PUSH3 0x172 PUSH3 0x3A4 JUMP JUMPDEST JUMPDEST PUSH3 0x180 DUP5 DUP3 DUP6 PUSH3 0x29F JUMP JUMPDEST POP SWAP4 SWAP3 POP POP POP JUMP JUMPDEST PUSH1 0x0 DUP3 PUSH1 0x1F DUP4 ADD SLT PUSH3 0x1A0 JUMPI PUSH3 0x19F PUSH3 0x39F JUMP JUMPDEST JUMPDEST DUP2 MLOAD PUSH3 0x1B2 DUP5 DUP3 PUSH1 0x20 DUP7 ADD PUSH3 0x13D JUMP JUMPDEST SWAP2 POP POP SWAP3 SWAP2 POP POP JUMP JUMPDEST PUSH1 0x0 DUP1 PUSH1 0x40 DUP4 DUP6 SUB SLT ISZERO PUSH3 0x1D5 JUMPI PUSH3 0x1D4 PUSH3 0x3AE JUMP JUMPDEST JUMPDEST PUSH1 0x0 DUP4 ADD MLOAD PUSH8 0xFFFFFFFFFFFFFFFF DUP2 GT ISZERO PUSH3 0x1F6 JUMPI PUSH3 0x1F5 PUSH3 0x3A9 JUMP JUMPDEST JUMPDEST PUSH3 0x204 DUP6 DUP3 DUP7 ADD PUSH3 0x188 JUMP JUMPDEST SWAP3 POP POP PUSH1 0x20 DUP4 ADD MLOAD PUSH8 0xFFFFFFFFFFFFFFFF DUP2 GT ISZERO PUSH3 0x228 JUMPI PUSH3 0x227 PUSH3 0x3A9 JUMP JUMPDEST JUMPDEST PUSH3 0x236 DUP6 DUP3 DUP7 ADD PUSH3 0x188 JUMP JUMPDEST SWAP2 POP POP SWAP3 POP SWAP3 SWAP1 POP JUMP JUMPDEST PUSH1 0x0 PUSH3 0x24C PUSH3 0x25F JUMP JUMPDEST SWAP1 POP PUSH3 0x25A DUP3 DUP3 PUSH3 0x30B JUMP JUMPDEST SWAP2 SWAP1 POP JUMP JUMPDEST PUSH1 0x0 PUSH1 0x40 MLOAD SWAP1 POP SWAP1 JUMP JUMPDEST PUSH1 0x0 PUSH8 0xFFFFFFFFFFFFFFFF DUP3 GT ISZERO PUSH3 0x287 JUMPI PUSH3 0x286 PUSH3 0x370 JUMP JUMPDEST JUMPDEST PUSH3 0x292 DUP3 PUSH3 0x3B3 JUMP JUMPDEST SWAP1 POP PUSH1 0x20 DUP2 ADD SWAP1 POP SWAP2 SWAP1 POP JUMP JUMPDEST PUSH1 0x0 JUMPDEST DUP4 DUP2 LT ISZERO PUSH3 0x2BF JUMPI DUP1 DUP3 ADD MLOAD DUP2 DUP5 ADD MSTORE PUSH1 0x20 DUP2 ADD SWAP1 POP PUSH3 0x2A2 JUMP JUMPDEST DUP4 DUP2 GT ISZERO PUSH3 0x2CF JUMPI PUSH1 0x0 DUP5 DUP5 ADD MSTORE JUMPDEST POP POP POP POP JUMP JUMPDEST PUSH1 0x0 PUSH1 0x2 DUP3 DIV SWAP1 POP PUSH1 0x1 DUP3 AND DUP1 PUSH3 0x2EE JUMPI PUSH1 0x7F DUP3 AND SWAP2 POP JUMPDEST PUSH1 0x20 DUP3 LT DUP2 EQ ISZERO PUSH3 0x305 JUMPI PUSH3 0x304 PUSH3 0x341 JUMP JUMPDEST JUMPDEST POP SWAP2 SWAP1 POP JUMP JUMPDEST PUSH3 0x316 DUP3 PUSH3 0x3B3 JUMP JUMPDEST DUP2 ADD DUP2 DUP2 LT PUSH8 0xFFFFFFFFFFFFFFFF DUP3 GT OR ISZERO PUSH3 0x338 JUMPI PUSH3 0x337 PUSH3 0x370 JUMP JUMPDEST JUMPDEST DUP1 PUSH1 0x40 MSTORE POP POP POP JUMP JUMPDEST PUSH32 0x4E487B7100000000000000000000000000000000000000000000000000000000 PUSH1 0x0 MSTORE PUSH1 0x22 PUSH1 0x4 MSTORE PUSH1 0x24 PUSH1 0x0 REVERT JUMPDEST PUSH32 0x4E487B7100000000000000000000000000000000000000000000000000000000 PUSH1 0x0 MSTORE PUSH1 0x41 PUSH1 0x4 MSTORE PUSH1 0x24 PUSH1 0x0 REVERT JUMPDEST PUSH1 0x0 DUP1 REVERT JUMPDEST PUSH1 0x0 DUP1 REVERT JUMPDEST PUSH1 0x0 DUP1 REVERT JUMPDEST PUSH1 0x0 DUP1 REVERT JUMPDEST PUSH1 0x0 PUSH1 0x1F NOT PUSH1 0x1F DUP4 ADD AND SWAP1 POP SWAP2 SWAP1 POP JUMP JUMPDEST PUSH2 0xD92 DUP1 PUSH3 0x3D4 PUSH1 0x0 CODECOPY PUSH1 0x0 RETURN INVALID PUSH1 0x80 PUSH1 0x40 MSTORE CALLVALUE DUP1 ISZERO PUSH2 0x10 JUMPI PUSH1 0x0 DUP1 REVERT JUMPDEST POP PUSH1 0x4 CALLDATASIZE LT PUSH2 0xA9 JUMPI PUSH1 0x0 CALLDATALOAD PUSH1 0xE0 SHR DUP1 PUSH4 0x42966C68 GT PUSH2 0x71 JUMPI DUP1 PUSH4 0x42966C68 EQ PUSH2 0x168 JUMPI DUP1 PUSH4 0x70A08231 EQ PUSH2 0x184 JUMPI DUP1 PUSH4 0x95D89B41 EQ PUSH2 0x1B4 JUMPI DUP1 PUSH4 0xA0712D68 EQ PUSH2 0x1D2 JUMPI DUP1 PUSH4 0xA9059CBB EQ PUSH2 0x1EE JUMPI DUP1 PUSH4 0xDD62ED3E EQ PUSH2 0x21E JUMPI PUSH2 0xA9 JUMP JUMPDEST DUP1 PUSH4 0x6FDDE03 EQ PUSH2 0xAE JUMPI DUP1 PUSH4 0x95EA7B3 EQ PUSH2 0xCC JUMPI DUP1 PUSH4 0x18160DDD EQ PUSH2 0xFC JUMPI DUP1 PUSH4 0x23B872DD EQ PUSH2 0x11A JUMPI DUP1 PUSH4 0x313CE567 EQ PUSH2 0x14A JUMPI JUMPDEST PUSH1 0x0 DUP1 REVERT JUMPDEST PUSH2 0xB6 PUSH2 0x24E JUMP JUMPDEST PUSH1 0x40 MLOAD PUSH2 0xC3 SWAP2 SWAP1 PUSH2 0xB02 JUMP JUMPDEST PUSH1 0x40 MLOAD DUP1 SWAP2 SUB SWAP1 RETURN JUMPDEST PUSH2 0xE6 PUSH1 0x4 DUP1 CALLDATASIZE SUB DUP2 ADD SWAP1 PUSH2 0xE1 SWAP2 SWAP1 PUSH2 0xA14 JUMP JUMPDEST PUSH2 0x2DC JUMP JUMPDEST PUSH1 0x40 MLOAD PUSH2 0xF3 SWAP2 SWAP1 PUSH2 0xAE7 JUMP JUMPDEST PUSH1 0x40 MLOAD DUP1 SWAP2 SUB SWAP1 RETURN JUMPDEST PUSH2 0x104 PUSH2 0x3CE JUMP JUMPDEST PUSH1 0x40 MLOAD PUSH2 0x111 SWAP2 SWAP1 PUSH2 0xB24 JUMP JUMPDEST PUSH1 0x40 MLOAD DUP1 SWAP2 SUB SWAP1 RETURN JUMPDEST PUSH2 0x134 PUSH1 0x4 DUP1 CALLDATASIZE SUB DUP2 ADD SWAP1 PUSH2 0x12F SWAP2 SWAP1 PUSH2 0x9C1 JUMP JUMPDEST PUSH2 0x3D4 JUMP JUMPDEST PUSH1 0x40 MLOAD PUSH2 0x141 SWAP2 SWAP1 PUSH2 0xAE7 JUMP JUMPDEST PUSH1 0x40 MLOAD DUP1 SWAP2 SUB SWAP1 RETURN JUMPDEST PUSH2 0x152 PUSH2 0x583 JUMP JUMPDEST PUSH1 0x40 MLOAD PUSH2 0x15F SWAP2 SWAP1 PUSH2 0xB3F JUMP JUMPDEST PUSH1 0x40 MLOAD DUP1 SWAP2 SUB SWAP1 RETURN JUMPDEST PUSH2 0x182 PUSH1 0x4 DUP1 CALLDATASIZE SUB DUP2 ADD SWAP1 PUSH2 0x17D SWAP2 SWAP1 PUSH2 0xA54 JUMP JUMPDEST PUSH2 0x596 JUMP JUMPDEST STOP JUMPDEST PUSH2 0x19E PUSH1 0x4 DUP1 CALLDATASIZE SUB DUP2 ADD SWAP1 PUSH2 0x199 SWAP2 SWAP1 PUSH2 0x954 JUMP JUMPDEST PUSH2 0x66D JUMP JUMPDEST PUSH1 0x40 MLOAD PUSH2 0x1AB SWAP2 SWAP1 PUSH2 0xB24 JUMP JUMPDEST PUSH1 0x40 MLOAD DUP1 SWAP2 SUB SWAP1 RETURN JUMPDEST PUSH2 0x1BC PUSH2 0x685 JUMP JUMPDEST PUSH1 0x40 MLOAD PUSH2 0x1C9 SWAP2 SWAP1 PUSH2 0xB02 JUMP JUMPDEST PUSH1 0x40 MLOAD DUP1 SWAP2 SUB SWAP1 RETURN JUMPDEST PUSH2 0x1EC PUSH1 0x4 DUP1 CALLDATASIZE SUB DUP2 ADD SWAP1 PUSH2 0x1E7 SWAP2 SWAP1 PUSH2 0xA54 JUMP JUMPDEST PUSH2 0x713 JUMP JUMPDEST STOP JUMPDEST PUSH2 0x208 PUSH1 0x4 DUP1 CALLDATASIZE SUB DUP2 ADD SWAP1 PUSH2 0x203 SWAP2 SWAP1 PUSH2 0xA14 JUMP JUMPDEST PUSH2 0x7EA JUMP JUMPDEST PUSH1 0x40 MLOAD PUSH2 0x215 SWAP2 SWAP1 PUSH2 0xAE7 JUMP JUMPDEST PUSH1 0x40 MLOAD DUP1 SWAP2 SUB SWAP1 RETURN JUMPDEST PUSH2 0x238 PUSH1 0x4 DUP1 CALLDATASIZE SUB DUP2 ADD SWAP1 PUSH2 0x233 SWAP2 SWAP1 PUSH2 0x981 JUMP JUMPDEST PUSH2 0x905 JUMP JUMPDEST PUSH1 0x40 MLOAD PUSH2 0x245 SWAP2 SWAP1 PUSH2 0xB24 JUMP JUMPDEST PUSH1 0x40 MLOAD DUP1 SWAP2 SUB SWAP1 RETURN JUMPDEST PUSH1 0x3 DUP1 SLOAD PUSH2 0x25B SWAP1 PUSH2 0xC88 JUMP JUMPDEST DUP1 PUSH1 0x1F ADD PUSH1 0x20 DUP1 SWAP2 DIV MUL PUSH1 0x20 ADD PUSH1 0x40 MLOAD SWAP1 DUP2 ADD PUSH1 0x40 MSTORE DUP1 SWAP3 SWAP2 SWAP1 DUP2 DUP2 MSTORE PUSH1 0x20 ADD DUP3 DUP1 SLOAD PUSH2 0x287 SWAP1 PUSH2 0xC88 JUMP JUMPDEST DUP1 ISZERO PUSH2 0x2D4 JUMPI DUP1 PUSH1 0x1F LT PUSH2 0x2A9 JUMPI PUSH2 0x100 DUP1 DUP4 SLOAD DIV MUL DUP4 MSTORE SWAP2 PUSH1 0x20 ADD SWAP2 PUSH2 0x2D4 JUMP JUMPDEST DUP3 ADD SWAP2 SWAP1 PUSH1 0x0 MSTORE PUSH1 0x20 PUSH1 0x0 KECCAK256 SWAP1 JUMPDEST DUP2 SLOAD DUP2 MSTORE SWAP1 PUSH1 0x1 ADD SWAP1 PUSH1 0x20 ADD DUP1 DUP4 GT PUSH2 0x2B7 JUMPI DUP3 SWAP1 SUB PUSH1 0x1F AND DUP3 ADD SWAP2 JUMPDEST POP POP POP POP POP DUP2 JUMP JUMPDEST PUSH1 0x0 DUP2 PUSH1 0x1 PUSH1 0x0 CALLER PUSH20 0xFFFFFFFFFFFFFFFFFFFFFFFFFFFFFFFFFFFFFFFF AND PUSH20 0xFFFFFFFFFFFFFFFFFFFFFFFFFFFFFFFFFFFFFFFF AND DUP2 MSTORE PUSH1 0x20 ADD SWAP1 DUP2 MSTORE PUSH1 0x20 ADD PUSH1 0x0 KECCAK256 PUSH1 0x0 DUP6 PUSH20 0xFFFFFFFFFFFFFFFFFFFFFFFFFFFFFFFFFFFFFFFF AND PUSH20 0xFFFFFFFFFFFFFFFFFFFFFFFFFFFFFFFFFFFFFFFF AND DUP2 MSTORE PUSH1 0x20 ADD SWAP1 DUP2 MSTORE PUSH1 0x20 ADD PUSH1 0x0 KECCAK256 DUP2 SWAP1 SSTORE POP DUP3 PUSH20 0xFFFFFFFFFFFFFFFFFFFFFFFFFFFFFFFFFFFFFFFF AND CALLER PUSH20 0xFFFFFFFFFFFFFFFFFFFFFFFFFFFFFFFFFFFFFFFF AND PUSH32 0x8C5BE1E5EBEC7D5BD14F71427D1E84F3DD0314C0F7B2291E5B200AC8C7C3B925 DUP5 PUSH1 0x40 MLOAD PUSH2 0x3BC SWAP2 SWAP1 PUSH2 0xB24 JUMP JUMPDEST PUSH1 0x40 MLOAD DUP1 SWAP2 SUB SWAP1 LOG3 PUSH1 0x1 SWAP1 POP SWAP3 SWAP2 POP POP JUMP JUMPDEST PUSH1 0x2 SLOAD DUP2 JUMP JUMPDEST PUSH1 0x0 DUP2 PUSH1 0x1 PUSH1 0x0 DUP7 PUSH20 0xFFFFFFFFFFFFFFFFFFFFFFFFFFFFFFFFFFFFFFFF AND PUSH20 0xFFFFFFFFFFFFFFFFFFFFFFFFFFFFFFFFFFFFFFFF AND DUP2 MSTORE PUSH1 0x20 ADD SWAP1 DUP2 MSTORE PUSH1 0x20 ADD PUSH1 0x0 KECCAK256 PUSH1 0x0 CALLER PUSH20 0xFFFFFFFFFFFFFFFFFFFFFFFFFFFFFFFFFFFFFFFF AND PUSH20 0xFFFFFFFFFFFFFFFFFFFFFFFFFFFFFFFFFFFFFFFF AND DUP2 MSTORE PUSH1 0x20 ADD SWAP1 DUP2 MSTORE PUSH1 0x20 ADD PUSH1 0x0 KECCAK256 PUSH1 0x0 DUP3 DUP3 SLOAD PUSH2 0x462 SWAP2 SWAP1 PUSH2 0xBCC JUMP JUMPDEST SWAP3 POP POP DUP2 SWAP1 SSTORE POP DUP2 PUSH1 0x0 DUP1 DUP7 PUSH20 0xFFFFFFFFFFFFFFFFFFFFFFFFFFFFFFFFFFFFFFFF AND PUSH20 0xFFFFFFFFFFFFFFFFFFFFFFFFFFFFFFFFFFFFFFFF AND DUP2 MSTORE PUSH1 0x20 ADD SWAP1 DUP2 MSTORE PUSH1 0x20 ADD PUSH1 0x0 KECCAK256 PUSH1 0x0 DUP3 DUP3 SLOAD PUSH2 0x4B7 SWAP2 SWAP1 PUSH2 0xBCC JUMP JUMPDEST SWAP3 POP POP DUP2 SWAP1 SSTORE POP DUP2 PUSH1 0x0 DUP1 DUP6 PUSH20 0xFFFFFFFFFFFFFFFFFFFFFFFFFFFFFFFFFFFFFFFF AND PUSH20 0xFFFFFFFFFFFFFFFFFFFFFFFFFFFFFFFFFFFFFFFF AND DUP2 MSTORE PUSH1 0x20 ADD SWAP1 DUP2 MSTORE PUSH1 0x20 ADD PUSH1 0x0 KECCAK256 PUSH1 0x0 DUP3 DUP3 SLOAD PUSH2 0x50C SWAP2 SWAP1 PUSH2 0xB76 JUMP JUMPDEST SWAP3 POP POP DUP2 SWAP1 SSTORE POP DUP3 PUSH20 0xFFFFFFFFFFFFFFFFFFFFFFFFFFFFFFFFFFFFFFFF AND DUP5 PUSH20 0xFFFFFFFFFFFFFFFFFFFFFFFFFFFFFFFFFFFFFFFF AND PUSH32 0xDDF252AD1BE2C89B69C2B068FC378DAA952BA7F163C4A11628F55A4DF523B3EF DUP5 PUSH1 0x40 MLOAD PUSH2 0x570 SWAP2 SWAP1 PUSH2 0xB24 JUMP JUMPDEST PUSH1 0x40 MLOAD DUP1 SWAP2 SUB SWAP1 LOG3 PUSH1 0x1 SWAP1 POP SWAP4 SWAP3 POP POP POP JUMP JUMPDEST PUSH1 0x5 PUSH1 0x0 SWAP1 SLOAD SWAP1 PUSH2 0x100 EXP SWAP1 DIV PUSH1 0xFF AND DUP2 JUMP JUMPDEST DUP1 PUSH1 0x0 DUP1 CALLER PUSH20 0xFFFFFFFFFFFFFFFFFFFFFFFFFFFFFFFFFFFFFFFF AND PUSH20 0xFFFFFFFFFFFFFFFFFFFFFFFFFFFFFFFFFFFFFFFF AND DUP2 MSTORE PUSH1 0x20 ADD SWAP1 DUP2 MSTORE PUSH1 0x20 ADD PUSH1 0x0 KECCAK256 PUSH1 0x0 DUP3 DUP3 SLOAD PUSH2 0x5E4 SWAP2 SWAP1 PUSH2 0xBCC JUMP JUMPDEST SWAP3 POP POP DUP2 SWAP1 SSTORE POP DUP1 PUSH1 0x2 PUSH1 0x0 DUP3 DUP3 SLOAD PUSH2 0x5FD SWAP2 SWAP1 PUSH2 0xBCC JUMP JUMPDEST SWAP3 POP POP DUP2 SWAP1 SSTORE POP PUSH1 0x0 PUSH20 0xFFFFFFFFFFFFFFFFFFFFFFFFFFFFFFFFFFFFFFFF AND CALLER PUSH20 0xFFFFFFFFFFFFFFFFFFFFFFFFFFFFFFFFFFFFFFFF AND PUSH32 0xDDF252AD1BE2C89B69C2B068FC378DAA952BA7F163C4A11628F55A4DF523B3EF DUP4 PUSH1 0x40 MLOAD PUSH2 0x662 SWAP2 SWAP1 PUSH2 0xB24 JUMP JUMPDEST PUSH1 0x40 MLOAD DUP1 SWAP2 SUB SWAP1 LOG3 POP JUMP JUMPDEST PUSH1 0x0 PUSH1 0x20 MSTORE DUP1 PUSH1 0x0 MSTORE PUSH1 0x40 PUSH1 0x0 KECCAK256 PUSH1 0x0 SWAP2 POP SWAP1 POP SLOAD DUP2 JUMP JUMPDEST PUSH1 0x4 DUP1 SLOAD PUSH2 0x692 SWAP1 PUSH2 0xC88 JUMP JUMPDEST DUP1 PUSH1 0x1F ADD PUSH1 0x20 DUP1 SWAP2 DIV MUL PUSH1 0x20 ADD PUSH1 0x40 MLOAD SWAP1 DUP2 ADD PUSH1 0x40 MSTORE DUP1 SWAP3 SWAP2 SWAP1 DUP2 DUP2 MSTORE PUSH1 0x20 ADD DUP3 DUP1 SLOAD PUSH2 0x6BE SWAP1 PUSH2 0xC88 JUMP JUMPDEST DUP1 ISZERO PUSH2 0x70B JUMPI DUP1 PUSH1 0x1F LT PUSH2 0x6E0 JUMPI PUSH2 0x100 DUP1 DUP4 SLOAD DIV MUL DUP4 MSTORE SWAP2 PUSH1 0x20 ADD SWAP2 PUSH2 0x70B JUMP JUMPDEST DUP3 ADD SWAP2 SWAP1 PUSH1 0x0 MSTORE PUSH1 0x20 PUSH1 0x0 KECCAK256 SWAP1 JUMPDEST DUP2 SLOAD DUP2 MSTORE SWAP1 PUSH1 0x1 ADD SWAP1 PUSH1 0x20 ADD DUP1 DUP4 GT PUSH2 0x6EE JUMPI DUP3 SWAP1 SUB PUSH1 0x1F AND DUP3 ADD SWAP2 JUMPDEST POP POP POP POP POP DUP2 JUMP JUMPDEST DUP1 PUSH1 0x0 DUP1 CALLER PUSH20 0xFFFFFFFFFFFFFFFFFFFFFFFFFFFFFFFFFFFFFFFF AND PUSH20 0xFFFFFFFFFFFFFFFFFFFFFFFFFFFFFFFFFFFFFFFF AND DUP2 MSTORE PUSH1 0x20 ADD SWAP1 DUP2 MSTORE PUSH1 0x20 ADD PUSH1 0x0 KECCAK256 PUSH1 0x0 DUP3 DUP3 SLOAD PUSH2 0x761 SWAP2 SWAP1 PUSH2 0xB76 JUMP JUMPDEST SWAP3 POP POP DUP2 SWAP1 SSTORE POP DUP1 PUSH1 0x2 PUSH1 0x0 DUP3 DUP3 SLOAD PUSH2 0x77A SWAP2 SWAP1 PUSH2 0xB76 JUMP JUMPDEST SWAP3 POP POP DUP2 SWAP1 SSTORE POP CALLER PUSH20 0xFFFFFFFFFFFFFFFFFFFFFFFFFFFFFFFFFFFFFFFF AND PUSH1 0x0 PUSH20 0xFFFFFFFFFFFFFFFFFFFFFFFFFFFFFFFFFFFFFFFF AND PUSH32 0xDDF252AD1BE2C89B69C2B068FC378DAA952BA7F163C4A11628F55A4DF523B3EF DUP4 PUSH1 0x40 MLOAD PUSH2 0x7DF SWAP2 SWAP1 PUSH2 0xB24 JUMP JUMPDEST PUSH1 0x40 MLOAD DUP1 SWAP2 SUB SWAP1 LOG3 POP JUMP JUMPDEST PUSH1 0x0 DUP2 PUSH1 0x0 DUP1 CALLER PUSH20 0xFFFFFFFFFFFFFFFFFFFFFFFFFFFFFFFFFFFFFFFF AND PUSH20 0xFFFFFFFFFFFFFFFFFFFFFFFFFFFFFFFFFFFFFFFF AND DUP2 MSTORE PUSH1 0x20 ADD SWAP1 DUP2 MSTORE PUSH1 0x20 ADD PUSH1 0x0 KECCAK256 PUSH1 0x0 DUP3 DUP3 SLOAD PUSH2 0x83A SWAP2 SWAP1 PUSH2 0xBCC JUMP JUMPDEST SWAP3 POP POP DUP2 SWAP1 SSTORE POP DUP2 PUSH1 0x0 DUP1 DUP6 PUSH20 0xFFFFFFFFFFFFFFFFFFFFFFFFFFFFFFFFFFFFFFFF AND PUSH20 0xFFFFFFFFFFFFFFFFFFFFFFFFFFFFFFFFFFFFFFFF AND DUP2 MSTORE PUSH1 0x20 ADD SWAP1 DUP2 MSTORE PUSH1 0x20 ADD PUSH1 0x0 KECCAK256 PUSH1 0x0 DUP3 DUP3 SLOAD PUSH2 0x88F SWAP2 SWAP1 PUSH2 0xBCC JUMP JUMPDEST SWAP3 POP POP DUP2 SWAP1 SSTORE POP DUP3 PUSH20 0xFFFFFFFFFFFFFFFFFFFFFFFFFFFFFFFFFFFFFFFF AND CALLER PUSH20 0xFFFFFFFFFFFFFFFFFFFFFFFFFFFFFFFFFFFFFFFF AND PUSH32 0xDDF252AD1BE2C89B69C2B068FC378DAA952BA7F163C4A11628F55A4DF523B3EF DUP5 PUSH1 0x40 MLOAD PUSH2 0x8F3 SWAP2 SWAP1 PUSH2 0xB24 JUMP JUMPDEST PUSH1 0x40 MLOAD DUP1 SWAP2 SUB SWAP1 LOG3 PUSH1 0x1 SWAP1 POP SWAP3 SWAP2 POP POP JUMP JUMPDEST PUSH1 0x1 PUSH1 0x20 MSTORE DUP2 PUSH1 0x0 MSTORE PUSH1 0x40 PUSH1 0x0 KECCAK256 PUSH1 0x20 MSTORE DUP1 PUSH1 0x0 MSTORE PUSH1 0x40 PUSH1 0x0 KECCAK256 PUSH1 0x0 SWAP2 POP SWAP2 POP POP SLOAD DUP2 JUMP JUMPDEST PUSH1 0x0 DUP2 CALLDATALOAD SWAP1 POP PUSH2 0x939 DUP2 PUSH2 0xD2E JUMP JUMPDEST SWAP3 SWAP2 POP POP JUMP JUMPDEST PUSH1 0x0 DUP2 CALLDATALOAD SWAP1 POP PUSH2 0x94E DUP2 PUSH2 0xD45 JUMP JUMPDEST SWAP3 SWAP2 POP POP JUMP JUMPDEST PUSH1 0x0 PUSH1 0x20 DUP3 DUP5 SUB SLT ISZERO PUSH2 0x96A JUMPI PUSH2 0x969 PUSH2 0xD18 JUMP JUMPDEST JUMPDEST PUSH1 0x0 PUSH2 0x978 DUP5 DUP3 DUP6 ADD PUSH2 0x92A JUMP JUMPDEST SWAP2 POP POP SWAP3 SWAP2 POP POP JUMP JUMPDEST PUSH1 0x0 DUP1 PUSH1 0x40 DUP4 DUP6 SUB SLT ISZERO PUSH2 0x998 JUMPI PUSH2 0x997 PUSH2 0xD18 JUMP JUMPDEST JUMPDEST PUSH1 0x0 PUSH2 0x9A6 DUP6 DUP3 DUP7 ADD PUSH2 0x92A JUMP JUMPDEST SWAP3 POP POP PUSH1 0x20 PUSH2 0x9B7 DUP6 DUP3 DUP7 ADD PUSH2 0x92A JUMP JUMPDEST SWAP2 POP POP SWAP3 POP SWAP3 SWAP1 POP JUMP JUMPDEST PUSH1 0x0 DUP1 PUSH1 0x0 PUSH1 0x60 DUP5 DUP7 SUB SLT ISZERO PUSH2 0x9DA JUMPI PUSH2 0x9D9 PUSH2 0xD18 JUMP JUMPDEST JUMPDEST PUSH1 0x0 PUSH2 0x9E8 DUP7 DUP3 DUP8 ADD PUSH2 0x92A JUMP JUMPDEST SWAP4 POP POP PUSH1 0x20 PUSH2 0x9F9 DUP7 DUP3 DUP8 ADD PUSH2 0x92A JUMP JUMPDEST SWAP3 POP POP PUSH1 0x40 PUSH2 0xA0A DUP7 DUP3 DUP8 ADD PUSH2 0x93F JUMP JUMPDEST SWAP2 POP POP SWAP3 POP SWAP3 POP SWAP3 JUMP JUMPDEST PUSH1 0x0 DUP1 PUSH1 0x40 DUP4 DUP6 SUB SLT ISZERO PUSH2 0xA2B JUMPI PUSH2 0xA2A PUSH2 0xD18 JUMP JUMPDEST JUMPDEST PUSH1 0x0 PUSH2 0xA39 DUP6 DUP3 DUP7 ADD PUSH2 0x92A JUMP JUMPDEST SWAP3 POP POP PUSH1 0x20 PUSH2 0xA4A DUP6 DUP3 DUP7 ADD PUSH2 0x93F JUMP JUMPDEST SWAP2 POP POP SWAP3 POP SWAP3 SWAP1 POP JUMP JUMPDEST PUSH1 0x0 PUSH1 0x20 DUP3 DUP5 SUB SLT ISZERO PUSH2 0xA6A JUMPI PUSH2 0xA69 PUSH2 0xD18 JUMP JUMPDEST JUMPDEST PUSH1 0x0 PUSH2 0xA78 DUP5 DUP3 DUP6 ADD PUSH2 0x93F JUMP JUMPDEST SWAP2 POP POP SWAP3 SWAP2 POP POP JUMP JUMPDEST PUSH2 0xA8A DUP2 PUSH2 0xC12 JUMP JUMPDEST DUP3 MSTORE POP POP JUMP JUMPDEST PUSH1 0x0 PUSH2 0xA9B DUP3 PUSH2 0xB5A JUMP JUMPDEST PUSH2 0xAA5 DUP2 DUP6 PUSH2 0xB65 JUMP JUMPDEST SWAP4 POP PUSH2 0xAB5 DUP2 DUP6 PUSH1 0x20 DUP7 ADD PUSH2 0xC55 JUMP JUMPDEST PUSH2 0xABE DUP2 PUSH2 0xD1D JUMP JUMPDEST DUP5 ADD SWAP2 POP POP SWAP3 SWAP2 POP POP JUMP JUMPDEST PUSH2 0xAD2 DUP2 PUSH2 0xC3E JUMP JUMPDEST DUP3 MSTORE POP POP JUMP JUMPDEST PUSH2 0xAE1 DUP2 PUSH2 0xC48 JUMP JUMPDEST DUP3 MSTORE POP POP JUMP JUMPDEST PUSH1 0x0 PUSH1 0x20 DUP3 ADD SWAP1 POP PUSH2 0xAFC PUSH1 0x0 DUP4 ADD DUP5 PUSH2 0xA81 JUMP JUMPDEST SWAP3 SWAP2 POP POP JUMP JUMPDEST PUSH1 0x0 PUSH1 0x20 DUP3 ADD SWAP1 POP DUP2 DUP2 SUB PUSH1 0x0 DUP4 ADD MSTORE PUSH2 0xB1C DUP2 DUP5 PUSH2 0xA90 JUMP JUMPDEST SWAP1 POP SWAP3 SWAP2 POP POP JUMP JUMPDEST PUSH1 0x0 PUSH1 0x20 DUP3 ADD SWAP1 POP PUSH2 0xB39 PUSH1 0x0 DUP4 ADD DUP5 PUSH2 0xAC9 JUMP JUMPDEST SWAP3 SWAP2 POP POP JUMP JUMPDEST PUSH1 0x0 PUSH1 0x20 DUP3 ADD SWAP1 POP PUSH2 0xB54 PUSH1 0x0 DUP4 ADD DUP5 PUSH2 0xAD8 JUMP JUMPDEST SWAP3 SWAP2 POP POP JUMP JUMPDEST PUSH1 0x0 DUP2 MLOAD SWAP1 POP SWAP2 SWAP1 POP JUMP JUMPDEST PUSH1 0x0 DUP3 DUP3 MSTORE PUSH1 0x20 DUP3 ADD SWAP1 POP SWAP3 SWAP2 POP POP JUMP JUMPDEST PUSH1 0x0 PUSH2 0xB81 DUP3 PUSH2 0xC3E JUMP JUMPDEST SWAP2 POP PUSH2 0xB8C DUP4 PUSH2 0xC3E JUMP JUMPDEST SWAP3 POP DUP3 PUSH32 0xFFFFFFFFFFFFFFFFFFFFFFFFFFFFFFFFFFFFFFFFFFFFFFFFFFFFFFFFFFFFFFFF SUB DUP3 GT ISZERO PUSH2 0xBC1 JUMPI PUSH2 0xBC0 PUSH2 0xCBA JUMP JUMPDEST JUMPDEST DUP3 DUP3 ADD SWAP1 POP SWAP3 SWAP2 POP POP JUMP JUMPDEST PUSH1 0x0 PUSH2 0xBD7 DUP3 PUSH2 0xC3E JUMP JUMPDEST SWAP2 POP PUSH2 0xBE2 DUP4 PUSH2 0xC3E JUMP JUMPDEST SWAP3 POP DUP3 DUP3 LT ISZERO PUSH2 0xBF5 JUMPI PUSH2 0xBF4 PUSH2 0xCBA JUMP JUMPDEST JUMPDEST DUP3 DUP3 SUB SWAP1 POP SWAP3 SWAP2 POP POP JUMP JUMPDEST PUSH1 0x0 PUSH2 0xC0B DUP3 PUSH2 0xC1E JUMP JUMPDEST SWAP1 POP SWAP2 SWAP1 POP JUMP JUMPDEST PUSH1 0x0 DUP2 ISZERO ISZERO SWAP1 POP SWAP2 SWAP1 POP JUMP JUMPDEST PUSH1 0x0 PUSH20 0xFFFFFFFFFFFFFFFFFFFFFFFFFFFFFFFFFFFFFFFF DUP3 AND SWAP1 POP SWAP2 SWAP1 POP JUMP JUMPDEST PUSH1 0x0 DUP2 SWAP1 POP SWAP2 SWAP1 POP JUMP JUMPDEST PUSH1 0x0 PUSH1 0xFF DUP3 AND SWAP1 POP SWAP2 SWAP1 POP JUMP JUMPDEST PUSH1 0x0 JUMPDEST DUP4 DUP2 LT ISZERO PUSH2 0xC73 JUMPI DUP1 DUP3 ADD MLOAD DUP2 DUP5 ADD MSTORE PUSH1 0x20 DUP2 ADD SWAP1 POP PUSH2 0xC58 JUMP JUMPDEST DUP4 DUP2 GT ISZERO PUSH2 0xC82 JUMPI PUSH1 0x0 DUP5 DUP5 ADD MSTORE JUMPDEST POP POP POP POP JUMP JUMPDEST PUSH1 0x0 PUSH1 0x2 DUP3 DIV SWAP1 POP PUSH1 0x1 DUP3 AND DUP1 PUSH2 0xCA0 JUMPI PUSH1 0x7F DUP3 AND SWAP2 POP JUMPDEST PUSH1 0x20 DUP3 LT DUP2 EQ ISZERO PUSH2 0xCB4 JUMPI PUSH2 0xCB3 PUSH2 0xCE9 JUMP JUMPDEST JUMPDEST POP SWAP2 SWAP1 POP JUMP JUMPDEST PUSH32 0x4E487B7100000000000000000000000000000000000000000000000000000000 PUSH1 0x0 MSTORE PUSH1 0x11 PUSH1 0x4 MSTORE PUSH1 0x24 PUSH1 0x0 REVERT JUMPDEST PUSH32 0x4E487B7100000000000000000000000000000000000000000000000000000000 PUSH1 0x0 MSTORE PUSH1 0x22 PUSH1 0x4 MSTORE PUSH1 0x24 PUSH1 0x0 REVERT JUMPDEST PUSH1 0x0 DUP1 REVERT JUMPDEST PUSH1 0x0 PUSH1 0x1F NOT PUSH1 0x1F DUP4 ADD AND SWAP1 POP SWAP2 SWAP1 POP JUMP JUMPDEST PUSH2 0xD37 DUP2 PUSH2 0xC00 JUMP JUMPDEST DUP2 EQ PUSH2 0xD42 JUMPI PUSH1 0x0 DUP1 REVERT JUMPDEST POP JUMP JUMPDEST PUSH2 0xD4E DUP2 PUSH2 0xC3E JUMP JUMPDEST DUP2 EQ PUSH2 0xD59 JUMPI PUSH1 0x0 DUP1 REVERT JUMPDEST POP JUMP INVALID LOG2 PUSH5 0x6970667358 0x22 SLT KECCAK256 RETURN 0xE7 PUSH7 0x36DF9C10561E45 PUSH26 0xDA77BED8289A2539A6CECD3FFE3276D4CD50FCBD064736F6C63 NUMBER STOP ADDMOD SMOD STOP CALLER "
				},
				"gasEstimates": {
					"creation": {
						"codeDepositCost": "694800",
						"executionCost": "infinite",
						"totalCost": "infinite"
					},
					"external": {
						"allowance(address,address)": "infinite",
						"approve(address,uint256)": "infinite",
						"balanceOf(address)": "2836",
						"burn(uint256)": "infinite",
						"decimals()": "2560",
						"mint(uint256)": "infinite",
						"name()": "infinite",
						"symbol()": "infinite",
						"totalSupply()": "2474",
						"transfer(address,uint256)": "infinite",
						"transferFrom(address,address,uint256)": "infinite"
					}
				},
				"methodIdentifiers": {
					"allowance(address,address)": "dd62ed3e",
					"approve(address,uint256)": "095ea7b3",
					"balanceOf(address)": "70a08231",
					"burn(uint256)": "42966c68",
					"decimals()": "313ce567",
					"mint(uint256)": "a0712d68",
					"name()": "06fdde03",
					"symbol()": "95d89b41",
					"totalSupply()": "18160ddd",
					"transfer(address,uint256)": "a9059cbb",
					"transferFrom(address,address,uint256)": "23b872dd"
				}
			},
			"storageLayout": {
				"storage": [
					{
						"astId": 9,
						"contract": "ERC/ERC20/ERC20.sol:ERC20",
						"label": "balanceOf",
						"offset": 0,
						"slot": "0",
						"type": "t_mapping(t_address,t_uint256)"
					},
					{
						"astId": 16,
						"contract": "ERC/ERC20/ERC20.sol:ERC20",
						"label": "allowance",
						"offset": 0,
						"slot": "1",
						"type": "t_mapping(t_address,t_mapping(t_address,t_uint256))"
					},
					{
						"astId": 19,
						"contract": "ERC/ERC20/ERC20.sol:ERC20",
						"label": "totalSupply",
						"offset": 0,
						"slot": "2",
						"type": "t_uint256"
					},
					{
						"astId": 21,
						"contract": "ERC/ERC20/ERC20.sol:ERC20",
						"label": "name",
						"offset": 0,
						"slot": "3",
						"type": "t_string_storage"
					},
					{
						"astId": 23,
						"contract": "ERC/ERC20/ERC20.sol:ERC20",
						"label": "symbol",
						"offset": 0,
						"slot": "4",
						"type": "t_string_storage"
					},
					{
						"astId": 26,
						"contract": "ERC/ERC20/ERC20.sol:ERC20",
						"label": "decimals",
						"offset": 0,
						"slot": "5",
						"type": "t_uint8"
					}
				],
				"types": {
					"t_address": {
						"encoding": "inplace",
						"label": "address",
						"numberOfBytes": "20"
					},
					"t_mapping(t_address,t_mapping(t_address,t_uint256))": {
						"encoding": "mapping",
						"key": "t_address",
						"label": "mapping(address => mapping(address => uint256))",
						"numberOfBytes": "32",
						"value": "t_mapping(t_address,t_uint256)"
					},
					"t_mapping(t_address,t_uint256)": {
						"encoding": "mapping",
						"key": "t_address",
						"label": "mapping(address => uint256)",
						"numberOfBytes": "32",
						"value": "t_uint256"
					},
					"t_string_storage": {
						"encoding": "bytes",
						"label": "string",
						"numberOfBytes": "32"
					},
					"t_uint256": {
						"encoding": "inplace",
						"label": "uint256",
						"numberOfBytes": "32"
					},
					"t_uint8": {
						"encoding": "inplace",
						"label": "uint8",
						"numberOfBytes": "1"
					}
				}
			},
			"userdoc": {
				"kind": "user",
				"methods": {},
				"version": 1
			}
		}
	}
}